{
  "contractName": "AcademicRecords",
  "abi": [
    {
      "constant": true,
      "inputs": [
        {
          "name": "",
          "type": "uint256"
        }
      ],
      "name": "students",
      "outputs": [
        {
          "name": "id",
          "type": "uint256"
        },
        {
          "name": "organisationId",
          "type": "uint256"
        },
        {
          "name": "studentCode",
          "type": "string"
        },
        {
          "name": "isActive",
          "type": "bool"
        }
      ],
      "payable": false,
      "stateMutability": "view",
      "type": "function"
    },
    {
      "constant": false,
      "inputs": [
        {
          "name": "_organisationId",
          "type": "uint256"
        },
        {
          "name": "_ownerAddress",
          "type": "address"
        }
      ],
      "name": "updateOrganisationOwner",
      "outputs": [],
      "payable": false,
      "stateMutability": "nonpayable",
      "type": "function"
    },
    {
      "constant": true,
      "inputs": [
        {
          "name": "",
          "type": "uint256"
        }
      ],
      "name": "organisations",
      "outputs": [
        {
          "name": "id",
          "type": "uint256"
        },
        {
          "name": "ownerAddress",
          "type": "address"
        },
        {
          "name": "name",
          "type": "string"
        },
        {
          "name": "isActive",
          "type": "bool"
        }
      ],
      "payable": false,
      "stateMutability": "view",
      "type": "function"
    },
    {
      "constant": true,
      "inputs": [],
      "name": "getPeriodsLength",
      "outputs": [
        {
          "name": "",
          "type": "uint256"
        }
      ],
      "payable": false,
      "stateMutability": "view",
      "type": "function"
    },
    {
      "constant": true,
      "inputs": [
        {
          "name": "",
          "type": "uint256"
        }
      ],
      "name": "subjects",
      "outputs": [
        {
          "name": "id",
          "type": "uint256"
        },
        {
          "name": "periodId",
          "type": "uint256"
        },
        {
          "name": "name",
          "type": "string"
        },
        {
          "name": "price",
          "type": "uint256"
        },
        {
          "name": "isActive",
          "type": "bool"
        }
      ],
      "payable": false,
      "stateMutability": "view",
      "type": "function"
    },
    {
      "constant": false,
      "inputs": [
        {
          "name": "_organisationId",
          "type": "uint256"
        },
        {
          "name": "_administratorAddress",
          "type": "address"
        },
        {
          "name": "_isActive",
          "type": "bool"
        }
      ],
      "name": "createAdministrator",
      "outputs": [],
      "payable": false,
      "stateMutability": "nonpayable",
      "type": "function"
    },
    {
      "constant": true,
      "inputs": [
        {
          "name": "",
          "type": "uint256"
        }
      ],
      "name": "grades",
      "outputs": [
        {
          "name": "id",
          "type": "uint256"
        },
        {
          "name": "professorId",
          "type": "uint256"
        },
        {
          "name": "enrollmentId",
          "type": "uint256"
        },
        {
          "name": "grade",
          "type": "int8"
        },
        {
          "name": "isActive",
          "type": "bool"
        }
      ],
      "payable": false,
      "stateMutability": "view",
      "type": "function"
    },
    {
      "constant": true,
      "inputs": [],
      "name": "getOrganisationsLength",
      "outputs": [
        {
          "name": "",
          "type": "uint256"
        }
      ],
      "payable": false,
      "stateMutability": "view",
      "type": "function"
    },
    {
      "constant": true,
      "inputs": [
        {
          "name": "",
          "type": "address"
        }
      ],
      "name": "ownerToOrganizationId",
      "outputs": [
        {
          "name": "",
          "type": "uint256"
        }
      ],
      "payable": false,
      "stateMutability": "view",
      "type": "function"
    },
    {
      "constant": false,
      "inputs": [
        {
          "name": "_administratorId",
          "type": "uint256"
        },
        {
          "name": "_isActive",
          "type": "bool"
        }
      ],
      "name": "updateAdministrator",
      "outputs": [],
      "payable": false,
      "stateMutability": "nonpayable",
      "type": "function"
    },
    {
      "constant": false,
      "inputs": [
        {
          "name": "_organisationId",
          "type": "uint256"
        },
        {
          "name": "_isActive",
          "type": "bool"
        }
      ],
      "name": "updateOrganisationState",
      "outputs": [],
      "payable": false,
      "stateMutability": "nonpayable",
      "type": "function"
    },
    {
      "constant": true,
      "inputs": [
        {
          "name": "",
          "type": "address"
        }
      ],
      "name": "administratorToAdministratorId",
      "outputs": [
        {
          "name": "",
          "type": "uint256"
        }
      ],
      "payable": false,
      "stateMutability": "view",
      "type": "function"
    },
    {
      "constant": true,
      "inputs": [
        {
          "name": "",
          "type": "address"
        },
        {
          "name": "",
          "type": "uint256"
        }
      ],
      "name": "professorAndSubjectIdToTeachingId",
      "outputs": [
        {
          "name": "id",
          "type": "uint256"
        },
        {
          "name": "subjectId",
          "type": "uint256"
        },
        {
          "name": "professorId",
          "type": "uint256"
        },
        {
          "name": "isActive",
          "type": "bool"
        }
      ],
      "payable": false,
      "stateMutability": "view",
      "type": "function"
    },
    {
      "constant": true,
      "inputs": [
        {
          "name": "",
          "type": "uint256"
        }
      ],
      "name": "enrollments",
      "outputs": [
        {
          "name": "id",
          "type": "uint256"
        },
        {
          "name": "subjectId",
          "type": "uint256"
        },
        {
          "name": "studentId",
          "type": "uint256"
        },
        {
          "name": "isActive",
          "type": "bool"
        }
      ],
      "payable": false,
      "stateMutability": "view",
      "type": "function"
    },
    {
      "constant": true,
      "inputs": [
        {
          "name": "",
          "type": "uint256"
        }
      ],
      "name": "teachings",
      "outputs": [
        {
          "name": "id",
          "type": "uint256"
        },
        {
          "name": "subjectId",
          "type": "uint256"
        },
        {
          "name": "professorId",
          "type": "uint256"
        },
        {
          "name": "isActive",
          "type": "bool"
        }
      ],
      "payable": false,
      "stateMutability": "view",
      "type": "function"
    },
    {
      "constant": true,
      "inputs": [],
      "name": "getAdministratorsLength",
      "outputs": [
        {
          "name": "",
          "type": "uint256"
        }
      ],
      "payable": false,
      "stateMutability": "view",
      "type": "function"
    },
    {
      "constant": false,
      "inputs": [
        {
          "name": "_periodId",
          "type": "uint256"
        },
        {
          "name": "_isActive",
          "type": "bool"
        }
      ],
      "name": "updatePeriod",
      "outputs": [],
      "payable": false,
      "stateMutability": "nonpayable",
      "type": "function"
    },
    {
      "constant": true,
      "inputs": [
        {
          "name": "",
          "type": "uint256"
        }
      ],
      "name": "professors",
      "outputs": [
        {
          "name": "id",
          "type": "uint256"
        },
        {
          "name": "organisationId",
          "type": "uint256"
        },
        {
          "name": "professorAddress",
          "type": "address"
        },
        {
          "name": "isActive",
          "type": "bool"
        }
      ],
      "payable": false,
      "stateMutability": "view",
      "type": "function"
    },
    {
      "constant": true,
      "inputs": [
        {
          "name": "",
          "type": "uint256"
        }
      ],
      "name": "administrators",
      "outputs": [
        {
          "name": "id",
          "type": "uint256"
        },
        {
          "name": "organisationId",
          "type": "uint256"
        },
        {
          "name": "administratorAddress",
          "type": "address"
        },
        {
          "name": "isActive",
          "type": "bool"
        }
      ],
      "payable": false,
      "stateMutability": "view",
      "type": "function"
    },
    {
      "constant": true,
      "inputs": [
        {
          "name": "",
          "type": "uint256"
        }
      ],
      "name": "periods",
      "outputs": [
        {
          "name": "id",
          "type": "uint256"
        },
        {
          "name": "organisationId",
          "type": "uint256"
        },
        {
          "name": "name",
          "type": "string"
        },
        {
          "name": "isActive",
          "type": "bool"
        }
      ],
      "payable": false,
      "stateMutability": "view",
      "type": "function"
    },
    {
      "constant": false,
      "inputs": [
        {
          "name": "_name",
          "type": "string"
        },
        {
          "name": "_isActive",
          "type": "bool"
        }
      ],
      "name": "createOrganisation",
      "outputs": [],
      "payable": false,
      "stateMutability": "nonpayable",
      "type": "function"
    },
    {
      "constant": false,
      "inputs": [
        {
          "name": "_organisationId",
          "type": "uint256"
        },
        {
          "name": "_name",
          "type": "string"
        },
        {
          "name": "_isActive",
          "type": "bool"
        }
      ],
      "name": "createPeriod",
      "outputs": [],
      "payable": false,
      "stateMutability": "nonpayable",
      "type": "function"
    },
    {
      "constant": true,
      "inputs": [
        {
          "name": "",
          "type": "address"
        }
      ],
      "name": "professorToProfessorId",
      "outputs": [
        {
          "name": "",
          "type": "uint256"
        }
      ],
      "payable": false,
      "stateMutability": "view",
      "type": "function"
    },
    {
      "inputs": [],
      "payable": false,
      "stateMutability": "nonpayable",
      "type": "constructor"
    },
    {
      "anonymous": false,
      "inputs": [
        {
          "indexed": true,
          "name": "subjectId",
          "type": "uint256"
        },
        {
          "indexed": true,
          "name": "periodId",
          "type": "uint256"
        },
        {
          "indexed": false,
          "name": "name",
          "type": "string"
        },
        {
          "indexed": false,
          "name": "price",
          "type": "uint256"
        },
        {
          "indexed": true,
          "name": "isActive",
          "type": "bool"
        }
      ],
      "name": "SubjectCreated",
      "type": "event"
    },
    {
      "anonymous": false,
      "inputs": [
        {
          "indexed": true,
          "name": "subjectId",
          "type": "uint256"
        },
        {
          "indexed": true,
          "name": "periodId",
          "type": "uint256"
        },
        {
          "indexed": false,
          "name": "name",
          "type": "string"
        },
        {
          "indexed": false,
          "name": "price",
          "type": "uint256"
        },
        {
          "indexed": true,
          "name": "isActive",
          "type": "bool"
        }
      ],
      "name": "SubjectUpdated",
      "type": "event"
    },
    {
      "anonymous": false,
      "inputs": [
        {
          "indexed": true,
          "name": "studentId",
          "type": "uint256"
        },
        {
          "indexed": true,
          "name": "organisationId",
          "type": "uint256"
        },
        {
          "indexed": false,
          "name": "studentCode",
          "type": "string"
        },
        {
          "indexed": true,
          "name": "isActive",
          "type": "bool"
        }
      ],
      "name": "StudentCreated",
      "type": "event"
    },
    {
      "anonymous": false,
      "inputs": [
        {
          "indexed": true,
          "name": "studentId",
          "type": "uint256"
        },
        {
          "indexed": true,
          "name": "organisationId",
          "type": "uint256"
        },
        {
          "indexed": false,
          "name": "studentCode",
          "type": "string"
        },
        {
          "indexed": true,
          "name": "isActive",
          "type": "bool"
        }
      ],
      "name": "StudentUpdated",
      "type": "event"
    },
    {
      "anonymous": false,
      "inputs": [
        {
          "indexed": true,
          "name": "enrollmentId",
          "type": "uint256"
        },
        {
          "indexed": true,
          "name": "subjectId",
          "type": "uint256"
        },
        {
          "indexed": true,
          "name": "studentId",
          "type": "uint256"
        },
        {
          "indexed": false,
          "name": "isActive",
          "type": "bool"
        }
      ],
      "name": "EnrollmentCreated",
      "type": "event"
    },
    {
      "anonymous": false,
      "inputs": [
        {
          "indexed": true,
          "name": "enrollmentId",
          "type": "uint256"
        },
        {
          "indexed": true,
          "name": "subjectId",
          "type": "uint256"
        },
        {
          "indexed": true,
          "name": "studentId",
          "type": "uint256"
        },
        {
          "indexed": false,
          "name": "isActive",
          "type": "bool"
        }
      ],
      "name": "EnrollmentUpdated",
      "type": "event"
    },
    {
      "anonymous": false,
      "inputs": [
        {
          "indexed": true,
          "name": "professorId",
          "type": "uint256"
        },
        {
          "indexed": true,
          "name": "organisationId",
          "type": "uint256"
        },
        {
          "indexed": true,
          "name": "professorAddress",
          "type": "address"
        },
        {
          "indexed": false,
          "name": "isActive",
          "type": "bool"
        }
      ],
      "name": "ProfessorCreated",
      "type": "event"
    },
    {
      "anonymous": false,
      "inputs": [
        {
          "indexed": true,
          "name": "professorId",
          "type": "uint256"
        },
        {
          "indexed": true,
          "name": "organisationId",
          "type": "uint256"
        },
        {
          "indexed": true,
          "name": "professorAddress",
          "type": "address"
        },
        {
          "indexed": false,
          "name": "isActive",
          "type": "bool"
        }
      ],
      "name": "ProfessorUpdated",
      "type": "event"
    },
    {
      "anonymous": false,
      "inputs": [
        {
          "indexed": true,
          "name": "teachingId",
          "type": "uint256"
        },
        {
          "indexed": true,
          "name": "subjectId",
          "type": "uint256"
        },
        {
          "indexed": true,
          "name": "professorId",
          "type": "uint256"
        },
        {
          "indexed": false,
          "name": "isActive",
          "type": "bool"
        }
      ],
      "name": "TeachingCreated",
      "type": "event"
    },
    {
      "anonymous": false,
      "inputs": [
        {
          "indexed": true,
          "name": "teachingId",
          "type": "uint256"
        },
        {
          "indexed": true,
          "name": "subjectId",
          "type": "uint256"
        },
        {
          "indexed": true,
          "name": "professorId",
          "type": "uint256"
        },
        {
          "indexed": false,
          "name": "isActive",
          "type": "bool"
        }
      ],
      "name": "TeachingUpdated",
      "type": "event"
    },
    {
      "anonymous": false,
      "inputs": [
        {
          "indexed": true,
          "name": "gradeId",
          "type": "uint256"
        },
        {
          "indexed": true,
          "name": "professorId",
          "type": "uint256"
        },
        {
          "indexed": true,
          "name": "enrollmentId",
          "type": "uint256"
        },
        {
          "indexed": false,
          "name": "grade",
          "type": "int8"
        },
        {
          "indexed": false,
          "name": "isActive",
          "type": "bool"
        }
      ],
      "name": "GradeCreated",
      "type": "event"
    },
    {
      "anonymous": false,
      "inputs": [
        {
          "indexed": true,
          "name": "gradeId",
          "type": "uint256"
        },
        {
          "indexed": true,
          "name": "professorId",
          "type": "uint256"
        },
        {
          "indexed": true,
          "name": "enrollmentId",
          "type": "uint256"
        },
        {
          "indexed": false,
          "name": "grade",
          "type": "int8"
        },
        {
          "indexed": false,
          "name": "isActive",
          "type": "bool"
        }
      ],
      "name": "GradeUpdated",
      "type": "event"
    },
    {
      "anonymous": false,
      "inputs": [
        {
          "indexed": true,
          "name": "organisationId",
          "type": "uint256"
        },
        {
          "indexed": true,
          "name": "owner",
          "type": "address"
        },
        {
          "indexed": false,
          "name": "name",
          "type": "string"
        },
        {
          "indexed": true,
          "name": "isActive",
          "type": "bool"
        }
      ],
      "name": "OrganisationCreated",
      "type": "event"
    },
    {
      "anonymous": false,
      "inputs": [
        {
          "indexed": true,
          "name": "organisationId",
          "type": "uint256"
        },
        {
          "indexed": true,
          "name": "owner",
          "type": "address"
        },
        {
          "indexed": false,
          "name": "name",
          "type": "string"
        },
        {
          "indexed": true,
          "name": "isActive",
          "type": "bool"
        }
      ],
      "name": "OrganisationOwnerUpdated",
      "type": "event"
    },
    {
      "anonymous": false,
      "inputs": [
        {
          "indexed": true,
          "name": "organisationId",
          "type": "uint256"
        },
        {
          "indexed": true,
          "name": "owner",
          "type": "address"
        },
        {
          "indexed": false,
          "name": "name",
          "type": "string"
        },
        {
          "indexed": true,
          "name": "isActive",
          "type": "bool"
        }
      ],
      "name": "OrganisationStateUpdated",
      "type": "event"
    },
    {
      "anonymous": false,
      "inputs": [
        {
          "indexed": true,
          "name": "administratorId",
          "type": "uint256"
        },
        {
          "indexed": true,
          "name": "organisationId",
          "type": "uint256"
        },
        {
          "indexed": true,
          "name": "administratorAddress",
          "type": "address"
        },
        {
          "indexed": false,
          "name": "isActive",
          "type": "bool"
        }
      ],
      "name": "AdministratorCreated",
      "type": "event"
    },
    {
      "anonymous": false,
      "inputs": [
        {
          "indexed": true,
          "name": "administratorId",
          "type": "uint256"
        },
        {
          "indexed": true,
          "name": "organisationId",
          "type": "uint256"
        },
        {
          "indexed": true,
          "name": "administratorAddress",
          "type": "address"
        },
        {
          "indexed": false,
          "name": "isActive",
          "type": "bool"
        }
      ],
      "name": "AdministratorUpdated",
      "type": "event"
    },
    {
      "anonymous": false,
      "inputs": [
        {
          "indexed": true,
          "name": "periodId",
          "type": "uint256"
        },
        {
          "indexed": true,
          "name": "organisationId",
          "type": "uint256"
        },
        {
          "indexed": false,
          "name": "name",
          "type": "string"
        },
        {
          "indexed": true,
          "name": "isActive",
          "type": "bool"
        }
      ],
      "name": "PeriodCreated",
      "type": "event"
    },
    {
      "anonymous": false,
      "inputs": [
        {
          "indexed": true,
          "name": "periodId",
          "type": "uint256"
        },
        {
          "indexed": true,
          "name": "organisationId",
          "type": "uint256"
        },
        {
          "indexed": false,
          "name": "name",
          "type": "string"
        },
        {
          "indexed": true,
          "name": "isActive",
          "type": "bool"
        }
      ],
      "name": "PeriodUpdated",
      "type": "event"
    },
    {
      "constant": false,
      "inputs": [
        {
          "name": "_periodId",
          "type": "uint256"
        },
        {
          "name": "_name",
          "type": "string"
        },
        {
          "name": "_price",
          "type": "uint256"
        },
        {
          "name": "_isActive",
          "type": "bool"
        }
      ],
      "name": "createSubject",
      "outputs": [],
      "payable": false,
      "stateMutability": "nonpayable",
      "type": "function"
    },
    {
      "constant": false,
      "inputs": [
        {
          "name": "_subjectId",
          "type": "uint256"
        },
        {
          "name": "_isActive",
          "type": "bool"
        }
      ],
      "name": "updateSubject",
      "outputs": [],
      "payable": false,
      "stateMutability": "nonpayable",
      "type": "function"
    },
    {
      "constant": false,
      "inputs": [
        {
          "name": "_organisationId",
          "type": "uint256"
        },
        {
          "name": "_studentCode",
          "type": "string"
        },
        {
          "name": "_isActive",
          "type": "bool"
        }
      ],
      "name": "createStudent",
      "outputs": [],
      "payable": false,
      "stateMutability": "nonpayable",
      "type": "function"
    },
    {
      "constant": false,
      "inputs": [
        {
          "name": "_studentId",
          "type": "uint256"
        },
        {
          "name": "_isActive",
          "type": "bool"
        }
      ],
      "name": "updateStudent",
      "outputs": [],
      "payable": false,
      "stateMutability": "nonpayable",
      "type": "function"
    },
    {
      "constant": false,
      "inputs": [
        {
          "name": "_subjectId",
          "type": "uint256"
        },
        {
          "name": "_studentId",
          "type": "uint256"
        },
        {
          "name": "_isActive",
          "type": "bool"
        }
      ],
      "name": "createEnrollment",
      "outputs": [],
      "payable": true,
      "stateMutability": "payable",
      "type": "function"
    },
    {
      "constant": false,
      "inputs": [
        {
          "name": "_enrollmentId",
          "type": "uint256"
        },
        {
          "name": "_isActive",
          "type": "bool"
        }
      ],
      "name": "updateEnrollment",
      "outputs": [],
      "payable": false,
      "stateMutability": "nonpayable",
      "type": "function"
    },
    {
      "constant": false,
      "inputs": [
        {
          "name": "_organisationId",
          "type": "uint256"
        },
        {
          "name": "_professorAddress",
          "type": "address"
        },
        {
          "name": "_isActive",
          "type": "bool"
        }
      ],
      "name": "createProfessor",
      "outputs": [],
      "payable": false,
      "stateMutability": "nonpayable",
      "type": "function"
    },
    {
      "constant": false,
      "inputs": [
        {
          "name": "_professorId",
          "type": "uint256"
        },
        {
          "name": "_isActive",
          "type": "bool"
        }
      ],
      "name": "updateProfessor",
      "outputs": [],
      "payable": false,
      "stateMutability": "nonpayable",
      "type": "function"
    },
    {
      "constant": false,
      "inputs": [
        {
          "name": "_subjectId",
          "type": "uint256"
        },
        {
          "name": "_professorId",
          "type": "uint256"
        },
        {
          "name": "_isActive",
          "type": "bool"
        }
      ],
      "name": "createTeaching",
      "outputs": [],
      "payable": false,
      "stateMutability": "nonpayable",
      "type": "function"
    },
    {
      "constant": false,
      "inputs": [
        {
          "name": "_teachingId",
          "type": "uint256"
        },
        {
          "name": "_isActive",
          "type": "bool"
        }
      ],
      "name": "updateTeaching",
      "outputs": [],
      "payable": false,
      "stateMutability": "nonpayable",
      "type": "function"
    },
    {
      "constant": false,
      "inputs": [
        {
          "name": "_enrollmentId",
          "type": "uint256"
        },
        {
          "name": "_grade",
          "type": "int8"
        },
        {
          "name": "_isActive",
          "type": "bool"
        }
      ],
      "name": "createGrade",
      "outputs": [],
      "payable": false,
      "stateMutability": "nonpayable",
      "type": "function"
    },
    {
      "constant": false,
      "inputs": [
        {
          "name": "_gradeId",
          "type": "uint256"
        },
        {
          "name": "_isActive",
          "type": "bool"
        }
      ],
      "name": "updateGrade",
      "outputs": [],
      "payable": false,
      "stateMutability": "nonpayable",
      "type": "function"
    },
    {
      "constant": true,
      "inputs": [
        {
          "name": "_professorAddress",
          "type": "address"
        },
        {
          "name": "_subjectId",
          "type": "uint256"
        }
      ],
      "name": "getTeachingIdByProfessorAddress",
      "outputs": [
        {
          "name": "teachingId",
          "type": "uint256"
        },
        {
          "name": "subjectId",
          "type": "uint256"
        },
        {
          "name": "professorId",
          "type": "uint256"
        },
        {
          "name": "isActive",
          "type": "bool"
        }
      ],
      "payable": false,
      "stateMutability": "view",
      "type": "function"
    },
    {
      "constant": true,
      "inputs": [],
      "name": "getSubjectsLength",
      "outputs": [
        {
          "name": "",
          "type": "uint256"
        }
      ],
      "payable": false,
      "stateMutability": "view",
      "type": "function"
    },
    {
      "constant": true,
      "inputs": [],
      "name": "getStudentsLength",
      "outputs": [
        {
          "name": "",
          "type": "uint256"
        }
      ],
      "payable": false,
      "stateMutability": "view",
      "type": "function"
    },
    {
      "constant": true,
      "inputs": [],
      "name": "getEnrollmentsLength",
      "outputs": [
        {
          "name": "",
          "type": "uint256"
        }
      ],
      "payable": false,
      "stateMutability": "view",
      "type": "function"
    },
    {
      "constant": true,
      "inputs": [],
      "name": "getProfessorsLength",
      "outputs": [
        {
          "name": "",
          "type": "uint256"
        }
      ],
      "payable": false,
      "stateMutability": "view",
      "type": "function"
    },
    {
      "constant": true,
      "inputs": [],
      "name": "getTeachingsLength",
      "outputs": [
        {
          "name": "",
          "type": "uint256"
        }
      ],
      "payable": false,
      "stateMutability": "view",
      "type": "function"
    },
    {
      "constant": true,
      "inputs": [],
      "name": "getGradesLength",
      "outputs": [
        {
          "name": "",
          "type": "uint256"
        }
      ],
      "payable": false,
      "stateMutability": "view",
      "type": "function"
    }
  ],
  "bytecode": "0x60806040523480156200001157600080fd5b50600060806040519081016040528060008152602001600073ffffffffffffffffffffffffffffffffffffffff1681526020016040805190810160405280600181526020017f3000000000000000000000000000000000000000000000000000000000000000815250815260200160001515815250908060018154018082558091505090600182039060005260206000209060040201600090919290919091506000820151816000015560208201518160010160006101000a81548173ffffffffffffffffffffffffffffffffffffffff021916908373ffffffffffffffffffffffffffffffffffffffff160217905550604082015181600201908051906020019062000120929190620007b9565b5060608201518160030160006101000a81548160ff02191690831515021790555050505060016080604051908101604052806000815260200160008152602001600073ffffffffffffffffffffffffffffffffffffffff1681526020016000151581525090806001815401808255809150509060018203906000526020600020906003020160009091929091909150600082015181600001556020820151816001015560408201518160020160006101000a81548173ffffffffffffffffffffffffffffffffffffffff021916908373ffffffffffffffffffffffffffffffffffffffff16021790555060608201518160020160146101000a81548160ff021916908315150217905550505050600260806040519081016040528060008152602001600081526020016040805190810160405280600181526020017f30000000000000000000000000000000000000000000000000000000000000008152508152602001600015158152509080600181540180825580915050906001820390600052602060002090600402016000909192909190915060008201518160000155602082015181600101556040820151816002019080519060200190620002e8929190620007b9565b5060608201518160030160006101000a81548160ff021916908315150217905550505050600560a06040519081016040528060008152602001600081526020016040805190810160405280600181526020017f3000000000000000000000000000000000000000000000000000000000000000815250815260200160008152602001600015158152509080600181540180825580915050906001820390600052602060002090600502016000909192909190915060008201518160000155602082015181600101556040820151816002019080519060200190620003ce929190620007b9565b506060820151816003015560808201518160040160006101000a81548160ff021916908315150217905550505050600660806040519081016040528060008152602001600081526020016040805190810160405280600181526020017f30000000000000000000000000000000000000000000000000000000000000008152508152602001600015158152509080600181540180825580915050906001820390600052602060002090600402016000909192909190915060008201518160000155602082015181600101556040820151816002019080519060200190620004b7929190620007b9565b5060608201518160030160006101000a81548160ff0219169083151502179055505050506007608060405190810160405280600081526020016000815260200160008152602001600015158152509080600181540180825580915050906001820390600052602060002090600402016000909192909190915060008201518160000155602082015181600101556040820151816002015560608201518160030160006101000a81548160ff02191690831515021790555050505060086080604051908101604052806000815260200160008152602001600073ffffffffffffffffffffffffffffffffffffffff1681526020016000151581525090806001815401808255809150509060018203906000526020600020906003020160009091929091909150600082015181600001556020820151816001015560408201518160020160006101000a81548173ffffffffffffffffffffffffffffffffffffffff021916908373ffffffffffffffffffffffffffffffffffffffff16021790555060608201518160020160146101000a81548160ff0219169083151502179055505050506009608060405190810160405280600081526020016000815260200160008152602001600015158152509080600181540180825580915050906001820390600052602060002090600402016000909192909190915060008201518160000155602082015181600101556040820151816002015560608201518160030160006101000a81548160ff021916908315150217905550505050600a60a0604051908101604052806000815260200160008152602001600081526020016000800b8152602001600015158152509080600181540180825580915050906001820390600052602060002090600402016000909192909190915060008201518160000155602082015181600101556040820151816002015560608201518160030160006101000a81548160ff021916908360000b60ff16021790555060808201518160030160016101000a81548160ff02191690831515021790555050505062000868565b828054600181600116156101000203166002900490600052602060002090601f016020900481019282601f10620007fc57805160ff19168380011785556200082d565b828001600101855582156200082d579182015b828111156200082c5782518255916020019190600101906200080f565b5b5090506200083c919062000840565b5090565b6200086591905b808211156200086157600081600090555060010162000847565b5090565b90565b615bf580620008786000396000f300608060405260043610610204576000357c0100000000000000000000000000000000000000000000000000000000900463ffffffff16806306ead22e146102095780631808504e146102c8578063246f8c44146103155780632a05db9d146104005780632adf50811461042b5780632c7424af146104565780632f419b7c1461051c57806346d9f0d0146105475780634b22fc62146105a05780635509aa28146106075780635d8160d2146106325780635e62a6f51461065d5780636227b56c146106b457806363c2633a146106df578063685d234e146107185780636b8e68f41461079257806371aa2f64146107cb5780637d1d7b7d146108045780637e8dd2851461085b5780638abe7fed146108945780638b7e85341461090e5780638c6a69b7146109545780638eb961dc1461098d5780639a6b2087146109c65780639f0b199014610a20578063a1a2baad14610a7a578063a265dfc814610aa5578063a7441ff414610b00578063a75d16a214610b39578063aa5de0ed14610b72578063b807be3814610bc3578063b8f2b5e714610bee578063bdb0fc7114610c74578063c215f2f714610ccd578063c6423a0c14610d06578063d3037c7f14610d3c578063d89d151014610d7f578063daf27d6614610e05578063ea4a110414610e30578063eb1a9c7314610eef578063ed2e30de14610f36578063f33f952114610f87575b600080fd5b34801561021557600080fd5b5061023460048036038101908080359060200190929190505050610fde565b604051808581526020018481526020018060200183151515158152602001828103825284818151815260200191508051906020019080838360005b8381101561028a57808201518184015260208101905061026f565b50505050905090810190601f1680156102b75780820380516001836020036101000a031916815260200191505b509550505050505060405180910390f35b3480156102d457600080fd5b5061031360048036038101908080359060200190929190803573ffffffffffffffffffffffffffffffffffffffff1690602001909291905050506110c2565b005b34801561032157600080fd5b506103406004803603810190808035906020019092919050505061139a565b604051808581526020018473ffffffffffffffffffffffffffffffffffffffff1673ffffffffffffffffffffffffffffffffffffffff1681526020018060200183151515158152602001828103825284818151815260200191508051906020019080838360005b838110156103c25780820151818401526020810190506103a7565b50505050905090810190601f1680156103ef5780820380516001836020036101000a031916815260200191505b509550505050505060405180910390f35b34801561040c57600080fd5b5061041561149e565b6040518082815260200191505060405180910390f35b34801561043757600080fd5b506104406114ab565b6040518082815260200191505060405180910390f35b34801561046257600080fd5b50610481600480360381019080803590602001909291905050506114b8565b604051808681526020018581526020018060200184815260200183151515158152602001828103825285818151815260200191508051906020019080838360005b838110156104dd5780820151818401526020810190506104c2565b50505050905090810190601f16801561050a5780820380516001836020036101000a031916815260200191505b50965050505050505060405180910390f35b34801561052857600080fd5b506105316115a2565b6040518082815260200191505060405180910390f35b34801561055357600080fd5b5061059e60048036038101908080359060200190929190803573ffffffffffffffffffffffffffffffffffffffff1690602001909291908035151590602001909291905050506115af565b005b3480156105ac57600080fd5b506105cb60048036038101908080359060200190929190505050611844565b604051808681526020018581526020018481526020018360000b60000b8152602001821515151581526020019550505050505060405180910390f35b34801561061357600080fd5b5061061c6118a3565b6040518082815260200191505060405180910390f35b34801561063e57600080fd5b506106476118b0565b6040518082815260200191505060405180910390f35b34801561066957600080fd5b5061069e600480360381019080803573ffffffffffffffffffffffffffffffffffffffff1690602001909291905050506118bc565b6040518082815260200191505060405180910390f35b3480156106c057600080fd5b506106c96118d4565b6040518082815260200191505060405180910390f35b3480156106eb57600080fd5b50610716600480360381019080803590602001909291908035151590602001909291905050506118e1565b005b34801561072457600080fd5b50610763600480360381019080803573ffffffffffffffffffffffffffffffffffffffff16906020019092919080359060200190929190505050611c13565b604051808581526020018481526020018381526020018215151515815260200194505050505060405180910390f35b34801561079e57600080fd5b506107c960048036038101908080359060200190929190803515159060200190929190505050611cde565b005b3480156107d757600080fd5b5061080260048036038101908080359060200190929190803515159060200190929190505050611ea3565b005b34801561081057600080fd5b50610845600480360381019080803573ffffffffffffffffffffffffffffffffffffffff16906020019092919050505061204e565b6040518082815260200191505060405180910390f35b34801561086757600080fd5b5061089260048036038101908080359060200190929190803515159060200190929190505050612066565b005b3480156108a057600080fd5b506108df600480360381019080803573ffffffffffffffffffffffffffffffffffffffff16906020019092919080359060200190929190505050612448565b604051808581526020018481526020018381526020018215151515815260200194505050505060405180910390f35b34801561091a57600080fd5b5061095260048036038101908080359060200190929190803560000b9060200190929190803515159060200190929190505050612492565b005b34801561096057600080fd5b5061098b60048036038101908080359060200190929190803515159060200190929190505050612adb565b005b34801561099957600080fd5b506109c460048036038101908080359060200190929190803515159060200190929190505050612dc4565b005b3480156109d257600080fd5b506109f1600480360381019080803590602001909291905050506131a6565b604051808581526020018481526020018381526020018215151515815260200194505050505060405180910390f35b348015610a2c57600080fd5b50610a4b600480360381019080803590602001909291905050506131f2565b604051808581526020018481526020018381526020018215151515815260200194505050505060405180910390f35b348015610a8657600080fd5b50610a8f61323e565b6040518082815260200191505060405180910390f35b348015610ab157600080fd5b50610afe600480360381019080803590602001909291908035906020019082018035906020019190919293919293908035906020019092919080351515906020019092919050505061324b565b005b348015610b0c57600080fd5b50610b3760048036038101908080359060200190929190803515159060200190929190505050613630565b005b348015610b4557600080fd5b50610b7060048036038101908080359060200190929190803515159060200190929190505050613c13565b005b348015610b7e57600080fd5b50610bc160048036038101908080359060200190929190803590602001908201803590602001919091929391929390803515159060200190929190505050613f45565b005b348015610bcf57600080fd5b50610bd861425d565b6040518082815260200191505060405180910390f35b348015610bfa57600080fd5b50610c196004803603810190808035906020019092919050505061426a565b604051808581526020018481526020018373ffffffffffffffffffffffffffffffffffffffff1673ffffffffffffffffffffffffffffffffffffffff1681526020018215151515815260200194505050505060405180910390f35b348015610c8057600080fd5b50610ccb60048036038101908080359060200190929190803573ffffffffffffffffffffffffffffffffffffffff1690602001909291908035151590602001909291905050506142d6565b005b348015610cd957600080fd5b50610d046004803603810190808035906020019092919080351515906020019092919050505061468d565b005b610d3a6004803603810190808035906020019092919080359060200190929190803515159060200190929190505050614abb565b005b348015610d4857600080fd5b50610d7d6004803603810190808035906020019092919080359060200190929190803515159060200190929190505050614e07565b005b348015610d8b57600080fd5b50610daa600480360381019080803590602001909291905050506153c5565b604051808581526020018481526020018373ffffffffffffffffffffffffffffffffffffffff1673ffffffffffffffffffffffffffffffffffffffff1681526020018215151515815260200194505050505060405180910390f35b348015610e1157600080fd5b50610e1a615431565b6040518082815260200191505060405180910390f35b348015610e3c57600080fd5b50610e5b6004803603810190808035906020019092919050505061543e565b604051808581526020018481526020018060200183151515158152602001828103825284818151815260200191508051906020019080838360005b83811015610eb1578082015181840152602081019050610e96565b50505050905090810190601f168015610ede5780820380516001836020036101000a031916815260200191505b509550505050505060405180910390f35b348015610efb57600080fd5b50610f34600480360381019080803590602001908201803590602001919091929391929390803515159060200190929190505050615522565b005b348015610f4257600080fd5b50610f856004803603810190808035906020019092919080359060200190820180359060200191909192939192939080351515906020019092919050505061575d565b005b348015610f9357600080fd5b50610fc8600480360381019080803573ffffffffffffffffffffffffffffffffffffffff169060200190929190505050615a75565b6040518082815260200191505060405180910390f35b600681815481101515610fed57fe5b9060005260206000209060040201600091509050806000015490806001015490806002018054600181600116156101000203166002900480601f0160208091040260200160405190810160405280929190818152602001828054600181600116156101000203166002900480156110a55780601f1061107a576101008083540402835291602001916110a5565b820191906000526020600020905b81548152906001019060200180831161108857829003601f168201915b5050505050908060030160009054906101000a900460ff16905084565b813373ffffffffffffffffffffffffffffffffffffffff166000828154811015156110e957fe5b906000526020600020906004020160010160009054906101000a900473ffffffffffffffffffffffffffffffffffffffff1673ffffffffffffffffffffffffffffffffffffffff1614151561113d57600080fd5b816000600360008373ffffffffffffffffffffffffffffffffffffffff1673ffffffffffffffffffffffffffffffffffffffff1681526020019081526020016000205414151561118c57600080fd5b8260008581548110151561119c57fe5b906000526020600020906004020160010160006101000a81548173ffffffffffffffffffffffffffffffffffffffff021916908373ffffffffffffffffffffffffffffffffffffffff16021790555083600360008573ffffffffffffffffffffffffffffffffffffffff1673ffffffffffffffffffffffffffffffffffffffff168152602001908152602001600020819055506000600360003373ffffffffffffffffffffffffffffffffffffffff1673ffffffffffffffffffffffffffffffffffffffff1681526020019081526020016000208190555060008481548110151561128357fe5b906000526020600020906004020160030160009054906101000a900460ff1615158373ffffffffffffffffffffffffffffffffffffffff16857f0e3cd7e56464e492650322c1b6c273b2c4066ec32a8cfbce716c9d46e08446706000888154811015156112ec57fe5b906000526020600020906004020160020160405180806020018281038252838181546001816001161561010002031660029004815260200191508054600181600116156101000203166002900480156113865780601f1061135b57610100808354040283529160200191611386565b820191906000526020600020905b81548152906001019060200180831161136957829003601f168201915b50509250505060405180910390a450505050565b6000818154811015156113a957fe5b90600052602060002090600402016000915090508060000154908060010160009054906101000a900473ffffffffffffffffffffffffffffffffffffffff1690806002018054600181600116156101000203166002900480601f0160208091040260200160405190810160405280929190818152602001828054600181600116156101000203166002900480156114815780601f1061145657610100808354040283529160200191611481565b820191906000526020600020905b81548152906001019060200180831161146457829003601f168201915b5050505050908060030160009054906101000a900460ff16905084565b6000600280549050905090565b6000600980549050905090565b6005818154811015156114c757fe5b9060005260206000209060050201600091509050806000015490806001015490806002018054600181600116156101000203166002900480601f01602080910402602001604051908101604052809291908181526020018280546001816001161561010002031660029004801561157f5780601f106115545761010080835404028352916020019161157f565b820191906000526020600020905b81548152906001019060200180831161156257829003601f168201915b5050505050908060030154908060040160009054906101000a900460ff16905085565b6000600580549050905090565b600080843373ffffffffffffffffffffffffffffffffffffffff166000828154811015156115d957fe5b906000526020600020906004020160010160009054906101000a900473ffffffffffffffffffffffffffffffffffffffff1673ffffffffffffffffffffffffffffffffffffffff1614151561162d57600080fd5b60008181548110151561163c57fe5b906000526020600020906004020160030160009054906101000a900460ff16151561166657600080fd5b600460008673ffffffffffffffffffffffffffffffffffffffff1673ffffffffffffffffffffffffffffffffffffffff1681526020019081526020016000205492506000831415156116b757600080fd5b60018060806040519081016040528060018054905081526020018981526020018873ffffffffffffffffffffffffffffffffffffffff16815260200187151581525090806001815401808255809150509060018203906000526020600020906003020160009091929091909150600082015181600001556020820151816001015560408201518160020160006101000a81548173ffffffffffffffffffffffffffffffffffffffff021916908373ffffffffffffffffffffffffffffffffffffffff16021790555060608201518160020160146101000a81548160ff021916908315150217905550505003915081600460008773ffffffffffffffffffffffffffffffffffffffff1673ffffffffffffffffffffffffffffffffffffffff168152602001908152602001600020819055508473ffffffffffffffffffffffffffffffffffffffff1686837f9e8615e3531a0bb3249e32dd1aac960110dc187e5b23b30147ed37c976b7034f87604051808215151515815260200191505060405180910390a4505050505050565b600a8181548110151561185357fe5b90600052602060002090600402016000915090508060000154908060010154908060020154908060030160009054906101000a900460000b908060030160019054906101000a900460ff16905085565b6000600780549050905090565b60008080549050905090565b60036020528060005260406000206000915090505481565b6000600a80549050905090565b6006828154811015156118f057fe5b90600052602060002090600402016001015460008181548110151561191157fe5b906000526020600020906004020160030160009054906101000a900460ff16151561193b57600080fd5b3373ffffffffffffffffffffffffffffffffffffffff166001600460003373ffffffffffffffffffffffffffffffffffffffff1673ffffffffffffffffffffffffffffffffffffffff168152602001908152602001600020548154811015156119a057fe5b906000526020600020906003020160020160009054906101000a900473ffffffffffffffffffffffffffffffffffffffff1673ffffffffffffffffffffffffffffffffffffffff161415156119f457600080fd5b806001600460003373ffffffffffffffffffffffffffffffffffffffff1673ffffffffffffffffffffffffffffffffffffffff16815260200190815260200160002054815481101515611a4357fe5b906000526020600020906003020160010154141515611a6157600080fd5b6001600460003373ffffffffffffffffffffffffffffffffffffffff1673ffffffffffffffffffffffffffffffffffffffff16815260200190815260200160002054815481101515611aaf57fe5b906000526020600020906003020160020160149054906101000a900460ff161515611ad957600080fd5b81600684815481101515611ae957fe5b906000526020600020906004020160030160006101000a81548160ff021916908315150217905550811515600684815481101515611b2357fe5b906000526020600020906004020160010154847fb7438b65846faa622442304bcf5603bf4618908ea5a47674c98ea36ad2958323600687815481101515611b6657fe5b90600052602060002090600402016002016040518080602001828103825283818154600181600116156101000203166002900481526020019150805460018160011615610100020316600290048015611c005780601f10611bd557610100808354040283529160200191611c00565b820191906000526020600020905b815481529060010190602001808311611be357829003601f168201915b50509250505060405180910390a4505050565b600080600080611c21615a8d565b600c60008873ffffffffffffffffffffffffffffffffffffffff1673ffffffffffffffffffffffffffffffffffffffff1681526020019081526020016000206000878152602001908152602001600020608060405190810160405290816000820154815260200160018201548152602001600282015481526020016003820160009054906101000a900460ff1615151515815250509050806000015194508060200151935080604001519250806060015191505092959194509250565b600182815481101515611ced57fe5b9060005260206000209060030201600101543373ffffffffffffffffffffffffffffffffffffffff16600082815481101515611d2557fe5b906000526020600020906004020160010160009054906101000a900473ffffffffffffffffffffffffffffffffffffffff1673ffffffffffffffffffffffffffffffffffffffff16141515611d7957600080fd5b600081815481101515611d8857fe5b906000526020600020906004020160030160009054906101000a900460ff161515611db257600080fd5b81600184815481101515611dc257fe5b906000526020600020906003020160020160146101000a81548160ff021916908315150217905550600183815481101515611df957fe5b906000526020600020906003020160020160009054906101000a900473ffffffffffffffffffffffffffffffffffffffff1673ffffffffffffffffffffffffffffffffffffffff16600184815481101515611e5057fe5b906000526020600020906003020160010154847fc67715d5a459042e5fdea0081a8b543681ec5c384618cbc873d507d8636589b585604051808215151515815260200191505060405180910390a4505050565b813373ffffffffffffffffffffffffffffffffffffffff16600082815481101515611eca57fe5b906000526020600020906004020160010160009054906101000a900473ffffffffffffffffffffffffffffffffffffffff1673ffffffffffffffffffffffffffffffffffffffff16141515611f1e57600080fd5b81600084815481101515611f2e57fe5b906000526020600020906004020160030160006101000a81548160ff0219169083151502179055508115153373ffffffffffffffffffffffffffffffffffffffff16847ffa7cf4e4e9c69137f7726c8896cac67f853dbc1bbfcec3e02e590e2551138be9600087815481101515611fa157fe5b9060005260206000209060040201600201604051808060200182810382528381815460018160011615610100020316600290048152602001915080546001816001161561010002031660029004801561203b5780601f106120105761010080835404028352916020019161203b565b820191906000526020600020905b81548152906001019060200180831161201e57829003601f168201915b50509250505060405180910390a4505050565b60046020528060005260406000206000915090505481565b600660078381548110151561207757fe5b90600052602060002090600402016002015481548110151561209557fe5b9060005260206000209060040201600101546000818154811015156120b657fe5b906000526020600020906004020160030160009054906101000a900460ff1615156120e057600080fd5b3373ffffffffffffffffffffffffffffffffffffffff166001600460003373ffffffffffffffffffffffffffffffffffffffff1673ffffffffffffffffffffffffffffffffffffffff1681526020019081526020016000205481548110151561214557fe5b906000526020600020906003020160020160009054906101000a900473ffffffffffffffffffffffffffffffffffffffff1673ffffffffffffffffffffffffffffffffffffffff1614151561219957600080fd5b806001600460003373ffffffffffffffffffffffffffffffffffffffff1673ffffffffffffffffffffffffffffffffffffffff168152602001908152602001600020548154811015156121e857fe5b90600052602060002090600302016001015414151561220657600080fd5b6001600460003373ffffffffffffffffffffffffffffffffffffffff1673ffffffffffffffffffffffffffffffffffffffff1681526020019081526020016000205481548110151561225457fe5b906000526020600020906003020160020160149054906101000a900460ff16151561227e57600080fd5b60078381548110151561228d57fe5b9060005260206000209060040201600101546007848154811015156122ae57fe5b9060005260206000209060040201600201546005828154811015156122cf57fe5b906000526020600020906005020160040160009054906101000a900460ff1615156122f957600080fd5b600260058381548110151561230a57fe5b90600052602060002090600502016001015481548110151561232857fe5b906000526020600020906004020160030160009054906101000a900460ff16151561235257600080fd5b60068181548110151561236157fe5b906000526020600020906004020160030160009054906101000a900460ff16151561238b57600080fd5b8360078681548110151561239b57fe5b906000526020600020906004020160030160006101000a81548160ff0219169083151502179055506007858154811015156123d257fe5b9060005260206000209060040201600201546007868154811015156123f357fe5b906000526020600020906004020160010154867fbff704df18b97e403258b17ebfe2533ec2ee60d79d15eed3f59beb0e0e07897587604051808215151515815260200191505060405180910390a45050505050565b600c602052816000526040600020602052806000526040600020600091509150508060000154908060010154908060020154908060030160009054906101000a900460ff16905084565b60008361249d615ab8565b60006124a7615ae3565b6124af615a8d565b6007858154811015156124be57fe5b9060005260206000209060040201608060405190810160405290816000820154815260200160018201548152602001600282015481526020016003820160009054906101000a900460ff16151515158152505093508360600151151561252357600080fd5b6006846040015181548110151561253657fe5b906000526020600020906004020160030160009054906101000a900460ff16151561256057600080fd5b6005846020015181548110151561257357fe5b906000526020600020906005020160040160009054906101000a900460ff16151561259d57600080fd5b6002600585602001518154811015156125b257fe5b9060005260206000209060050201600101548154811015156125d057fe5b906000526020600020906004020160030160009054906101000a900460ff1615156125fa57600080fd5b60026005856020015181548110151561260f57fe5b90600052602060002090600502016001015481548110151561262d57fe5b906000526020600020906004020160010154925060008381548110151561265057fe5b906000526020600020906004020160030160009054906101000a900460ff16151561267a57600080fd5b6008600b60003373ffffffffffffffffffffffffffffffffffffffff1673ffffffffffffffffffffffffffffffffffffffff168152602001908152602001600020548154811015156126c857fe5b90600052602060002090600302016080604051908101604052908160008201548152602001600182015481526020016002820160009054906101000a900473ffffffffffffffffffffffffffffffffffffffff1673ffffffffffffffffffffffffffffffffffffffff1673ffffffffffffffffffffffffffffffffffffffff1681526020016002820160149054906101000a900460ff16151515158152505091508160600151151561277957600080fd5b816020015160026005866020015181548110151561279357fe5b9060005260206000209060050201600101548154811015156127b157fe5b9060005260206000209060040201600101541415156127cf57600080fd5b8160200151600685604001518154811015156127e757fe5b90600052602060002090600402016001015414151561280557600080fd5b600c60003373ffffffffffffffffffffffffffffffffffffffff1673ffffffffffffffffffffffffffffffffffffffff168152602001908152602001600020600085602001518152602001908152602001600020608060405190810160405290816000820154815260200160018201548152602001600282015481526020016003820160009054906101000a900460ff1615151515815250509050806060015115156128b057600080fd5b600981600001518154811015156128c357fe5b906000526020600020906004020160030160009054906101000a900460ff1615156128ed57600080fd5b600b60003373ffffffffffffffffffffffffffffffffffffffff1673ffffffffffffffffffffffffffffffffffffffff16815260200190815260200160002054816040015114151561293e57600080fd5b6001600a60a060405190810160405280600a805490508152602001600b60003373ffffffffffffffffffffffffffffffffffffffff1673ffffffffffffffffffffffffffffffffffffffff1681526020019081526020016000205481526020018c81526020018b60000b81526020018a15158152509080600181540180825580915050906001820390600052602060002090600402016000909192909190915060008201518160000155602082015181600101556040820151816002015560608201518160030160006101000a81548160ff021916908360000b60ff16021790555060808201518160030160016101000a81548160ff021916908315150217905550505003955088600b60003373ffffffffffffffffffffffffffffffffffffffff1673ffffffffffffffffffffffffffffffffffffffff16815260200190815260200160002054877f26af9ab578490e1f22fce8b1f83b85a1d5ed9a8f7bd08d413cfd301565548a488b8b604051808360000b60000b8152602001821515151581526020019250505060405180910390a4505050505050505050565b600882815481101515612aea57fe5b906000526020600020906003020160010154600081815481101515612b0b57fe5b906000526020600020906004020160030160009054906101000a900460ff161515612b3557600080fd5b3373ffffffffffffffffffffffffffffffffffffffff166001600460003373ffffffffffffffffffffffffffffffffffffffff1673ffffffffffffffffffffffffffffffffffffffff16815260200190815260200160002054815481101515612b9a57fe5b906000526020600020906003020160020160009054906101000a900473ffffffffffffffffffffffffffffffffffffffff1673ffffffffffffffffffffffffffffffffffffffff16141515612bee57600080fd5b806001600460003373ffffffffffffffffffffffffffffffffffffffff1673ffffffffffffffffffffffffffffffffffffffff16815260200190815260200160002054815481101515612c3d57fe5b906000526020600020906003020160010154141515612c5b57600080fd5b6001600460003373ffffffffffffffffffffffffffffffffffffffff1673ffffffffffffffffffffffffffffffffffffffff16815260200190815260200160002054815481101515612ca957fe5b906000526020600020906003020160020160149054906101000a900460ff161515612cd357600080fd5b81600884815481101515612ce357fe5b906000526020600020906003020160020160146101000a81548160ff021916908315150217905550600883815481101515612d1a57fe5b906000526020600020906003020160020160009054906101000a900473ffffffffffffffffffffffffffffffffffffffff1673ffffffffffffffffffffffffffffffffffffffff16600884815481101515612d7157fe5b906000526020600020906003020160010154847f4666dcc224246bc52a4c4d2b7d75127cbd0d066f47e6434b5d9ae2fb9f3596f385604051808215151515815260200191505060405180910390a4505050565b6008600983815481101515612dd557fe5b906000526020600020906004020160020154815481101515612df357fe5b906000526020600020906003020160010154600081815481101515612e1457fe5b906000526020600020906004020160030160009054906101000a900460ff161515612e3e57600080fd5b3373ffffffffffffffffffffffffffffffffffffffff166001600460003373ffffffffffffffffffffffffffffffffffffffff1673ffffffffffffffffffffffffffffffffffffffff16815260200190815260200160002054815481101515612ea357fe5b906000526020600020906003020160020160009054906101000a900473ffffffffffffffffffffffffffffffffffffffff1673ffffffffffffffffffffffffffffffffffffffff16141515612ef757600080fd5b806001600460003373ffffffffffffffffffffffffffffffffffffffff1673ffffffffffffffffffffffffffffffffffffffff16815260200190815260200160002054815481101515612f4657fe5b906000526020600020906003020160010154141515612f6457600080fd5b6001600460003373ffffffffffffffffffffffffffffffffffffffff1673ffffffffffffffffffffffffffffffffffffffff16815260200190815260200160002054815481101515612fb257fe5b906000526020600020906003020160020160149054906101000a900460ff161515612fdc57600080fd5b600983815481101515612feb57fe5b90600052602060002090600402016001015460098481548110151561300c57fe5b90600052602060002090600402016002015460058281548110151561302d57fe5b906000526020600020906005020160040160009054906101000a900460ff16151561305757600080fd5b600260058381548110151561306857fe5b90600052602060002090600502016001015481548110151561308657fe5b906000526020600020906004020160030160009054906101000a900460ff1615156130b057600080fd5b6008818154811015156130bf57fe5b906000526020600020906003020160020160149054906101000a900460ff1615156130e957600080fd5b836009868154811015156130f957fe5b906000526020600020906004020160030160006101000a81548160ff02191690831515021790555060098581548110151561313057fe5b90600052602060002090600402016002015460098681548110151561315157fe5b906000526020600020906004020160010154867f91a2137a6376d29d9497f217858bb90dc5c08bc7f35b560f9455618e00136b8c87604051808215151515815260200191505060405180910390a45050505050565b6007818154811015156131b557fe5b90600052602060002090600402016000915090508060000154908060010154908060020154908060030160009054906101000a900460ff16905084565b60098181548110151561320157fe5b90600052602060002090600402016000915090508060000154908060010154908060020154908060030160009054906101000a900460ff16905084565b6000600180549050905090565b600060028681548110151561325c57fe5b90600052602060002090600402016001015460008181548110151561327d57fe5b906000526020600020906004020160030160009054906101000a900460ff1615156132a757600080fd5b3373ffffffffffffffffffffffffffffffffffffffff166001600460003373ffffffffffffffffffffffffffffffffffffffff1673ffffffffffffffffffffffffffffffffffffffff1681526020019081526020016000205481548110151561330c57fe5b906000526020600020906003020160020160009054906101000a900473ffffffffffffffffffffffffffffffffffffffff1673ffffffffffffffffffffffffffffffffffffffff1614151561336057600080fd5b806001600460003373ffffffffffffffffffffffffffffffffffffffff1673ffffffffffffffffffffffffffffffffffffffff168152602001908152602001600020548154811015156133af57fe5b9060005260206000209060030201600101541415156133cd57600080fd5b6001600460003373ffffffffffffffffffffffffffffffffffffffff1673ffffffffffffffffffffffffffffffffffffffff1681526020019081526020016000205481548110151561341b57fe5b906000526020600020906003020160020160149054906101000a900460ff16151561344557600080fd5b8660028181548110151561345557fe5b906000526020600020906004020160030160009054906101000a900460ff16151561347f57600080fd5b600060028281548110151561349057fe5b9060005260206000209060040201600101548154811015156134ae57fe5b906000526020600020906004020160030160009054906101000a900460ff1615156134d857600080fd5b6001600560a06040519081016040528060058054905081526020018b81526020018a8a8080601f01602080910402602001604051908101604052809392919081815260200183838082843782019150505050505081526020018881526020018715158152509080600181540180825580915050906001820390600052602060002090600502016000909192909190915060008201518160000155602082015181600101556040820151816002019080519060200190613598929190615b24565b506060820151816003015560808201518160040160006101000a81548160ff021916908315150217905550505003925083151588847fd64fe3198e0b8135d3d0e5d700ada007a223e039a76fb2230a1f124319efcea98a8a8a60405180806020018381526020018281038252858582818152602001925080828437820191505094505050505060405180910390a45050505050505050565b600a8281548110151561363f57fe5b906000526020600020906004020160020154613659615ab8565b6000613663615ae3565b61366b615a8d565b60078581548110151561367a57fe5b9060005260206000209060040201608060405190810160405290816000820154815260200160018201548152602001600282015481526020016003820160009054906101000a900460ff1615151515815250509350836060015115156136df57600080fd5b600684604001518154811015156136f257fe5b906000526020600020906004020160030160009054906101000a900460ff16151561371c57600080fd5b6005846020015181548110151561372f57fe5b906000526020600020906005020160040160009054906101000a900460ff16151561375957600080fd5b60026005856020015181548110151561376e57fe5b90600052602060002090600502016001015481548110151561378c57fe5b906000526020600020906004020160030160009054906101000a900460ff1615156137b657600080fd5b6002600585602001518154811015156137cb57fe5b9060005260206000209060050201600101548154811015156137e957fe5b906000526020600020906004020160010154925060008381548110151561380c57fe5b906000526020600020906004020160030160009054906101000a900460ff16151561383657600080fd5b6008600b60003373ffffffffffffffffffffffffffffffffffffffff1673ffffffffffffffffffffffffffffffffffffffff1681526020019081526020016000205481548110151561388457fe5b90600052602060002090600302016080604051908101604052908160008201548152602001600182015481526020016002820160009054906101000a900473ffffffffffffffffffffffffffffffffffffffff1673ffffffffffffffffffffffffffffffffffffffff1673ffffffffffffffffffffffffffffffffffffffff1681526020016002820160149054906101000a900460ff16151515158152505091508160600151151561393557600080fd5b816020015160026005866020015181548110151561394f57fe5b90600052602060002090600502016001015481548110151561396d57fe5b90600052602060002090600402016001015414151561398b57600080fd5b8160200151600685604001518154811015156139a357fe5b9060005260206000209060040201600101541415156139c157600080fd5b600c60003373ffffffffffffffffffffffffffffffffffffffff1673ffffffffffffffffffffffffffffffffffffffff168152602001908152602001600020600085602001518152602001908152602001600020608060405190810160405290816000820154815260200160018201548152602001600282015481526020016003820160009054906101000a900460ff161515151581525050905080606001511515613a6c57600080fd5b60098160000151815481101515613a7f57fe5b906000526020600020906004020160030160009054906101000a900460ff161515613aa957600080fd5b600b60003373ffffffffffffffffffffffffffffffffffffffff1673ffffffffffffffffffffffffffffffffffffffff168152602001908152602001600020548160400151141515613afa57600080fd5b85600a88815481101515613b0a57fe5b906000526020600020906004020160030160016101000a81548160ff021916908315150217905550600a87815481101515613b4157fe5b906000526020600020906004020160020154600b60003373ffffffffffffffffffffffffffffffffffffffff1673ffffffffffffffffffffffffffffffffffffffff16815260200190815260200160002054887f3b5bf2ee54e528079c80507affbd5300eae12fc2492ac64bd5127bac3874a6af600a8b815481101515613bc457fe5b906000526020600020906004020160030160009054906101000a900460000b8a604051808360000b60000b8152602001821515151581526020019250505060405180910390a450505050505050565b600282815481101515613c2257fe5b906000526020600020906004020160010154600081815481101515613c4357fe5b906000526020600020906004020160030160009054906101000a900460ff161515613c6d57600080fd5b3373ffffffffffffffffffffffffffffffffffffffff166001600460003373ffffffffffffffffffffffffffffffffffffffff1673ffffffffffffffffffffffffffffffffffffffff16815260200190815260200160002054815481101515613cd257fe5b906000526020600020906003020160020160009054906101000a900473ffffffffffffffffffffffffffffffffffffffff1673ffffffffffffffffffffffffffffffffffffffff16141515613d2657600080fd5b806001600460003373ffffffffffffffffffffffffffffffffffffffff1673ffffffffffffffffffffffffffffffffffffffff16815260200190815260200160002054815481101515613d7557fe5b906000526020600020906003020160010154141515613d9357600080fd5b6001600460003373ffffffffffffffffffffffffffffffffffffffff1673ffffffffffffffffffffffffffffffffffffffff16815260200190815260200160002054815481101515613de157fe5b906000526020600020906003020160020160149054906101000a900460ff161515613e0b57600080fd5b81600284815481101515613e1b57fe5b906000526020600020906004020160030160006101000a81548160ff021916908315150217905550811515600284815481101515613e5557fe5b906000526020600020906004020160010154847fb4528fd95abb6155adfa88b15c9ed8be9b33d9f26188eb0233e67a4cc5856135600287815481101515613e9857fe5b90600052602060002090600402016002016040518080602001828103825283818154600181600116156101000203166002900481526020019150805460018160011615610100020316600290048015613f325780601f10613f0757610100808354040283529160200191613f32565b820191906000526020600020905b815481529060010190602001808311613f1557829003601f168201915b50509250505060405180910390a4505050565b600084600081815481101515613f5757fe5b906000526020600020906004020160030160009054906101000a900460ff161515613f8157600080fd5b3373ffffffffffffffffffffffffffffffffffffffff166001600460003373ffffffffffffffffffffffffffffffffffffffff1673ffffffffffffffffffffffffffffffffffffffff16815260200190815260200160002054815481101515613fe657fe5b906000526020600020906003020160020160009054906101000a900473ffffffffffffffffffffffffffffffffffffffff1673ffffffffffffffffffffffffffffffffffffffff1614151561403a57600080fd5b806001600460003373ffffffffffffffffffffffffffffffffffffffff1673ffffffffffffffffffffffffffffffffffffffff1681526020019081526020016000205481548110151561408957fe5b9060005260206000209060030201600101541415156140a757600080fd5b6001600460003373ffffffffffffffffffffffffffffffffffffffff1673ffffffffffffffffffffffffffffffffffffffff168152602001908152602001600020548154811015156140f557fe5b906000526020600020906003020160020160149054906101000a900460ff16151561411f57600080fd5b60016006608060405190810160405280600680549050815260200189815260200188888080601f016020809104026020016040519081016040528093929190818152602001838380828437820191505050505050815260200186151581525090806001815401808255809150509060018203906000526020600020906004020160009091929091909150600082015181600001556020820151816001015560408201518160020190805190602001906141d9929190615b24565b5060608201518160030160006101000a81548160ff021916908315150217905550505003915082151586837f6c112b8d793e744a6738cee0e2e35001ded70abc43044aee6e265eab136659e88888604051808060200182810382528484828181526020019250808284378201915050935050505060405180910390a4505050505050565b6000600680549050905090565b60088181548110151561427957fe5b90600052602060002090600302016000915090508060000154908060010154908060020160009054906101000a900473ffffffffffffffffffffffffffffffffffffffff16908060020160149054906101000a900460ff16905084565b6000836000818154811015156142e857fe5b906000526020600020906004020160030160009054906101000a900460ff16151561431257600080fd5b3373ffffffffffffffffffffffffffffffffffffffff166001600460003373ffffffffffffffffffffffffffffffffffffffff1673ffffffffffffffffffffffffffffffffffffffff1681526020019081526020016000205481548110151561437757fe5b906000526020600020906003020160020160009054906101000a900473ffffffffffffffffffffffffffffffffffffffff1673ffffffffffffffffffffffffffffffffffffffff161415156143cb57600080fd5b806001600460003373ffffffffffffffffffffffffffffffffffffffff1673ffffffffffffffffffffffffffffffffffffffff1681526020019081526020016000205481548110151561441a57fe5b90600052602060002090600302016001015414151561443857600080fd5b6001600460003373ffffffffffffffffffffffffffffffffffffffff1673ffffffffffffffffffffffffffffffffffffffff1681526020019081526020016000205481548110151561448657fe5b906000526020600020906003020160020160149054906101000a900460ff1615156144b057600080fd5b836000600b60008373ffffffffffffffffffffffffffffffffffffffff1673ffffffffffffffffffffffffffffffffffffffff168152602001908152602001600020541415156144ff57600080fd5b6001600860806040519081016040528060088054905081526020018981526020018873ffffffffffffffffffffffffffffffffffffffff16815260200187151581525090806001815401808255809150509060018203906000526020600020906003020160009091929091909150600082015181600001556020820151816001015560408201518160020160006101000a81548173ffffffffffffffffffffffffffffffffffffffff021916908373ffffffffffffffffffffffffffffffffffffffff16021790555060608201518160020160146101000a81548160ff021916908315150217905550505003925082600b60008773ffffffffffffffffffffffffffffffffffffffff1673ffffffffffffffffffffffffffffffffffffffff168152602001908152602001600020819055508473ffffffffffffffffffffffffffffffffffffffff1686847ff18519431d81a061686b71cccc1026f76c042b778c5ffdb101b99df0c8b176d687604051808215151515815260200191505060405180910390a4505050505050565b600260058381548110151561469e57fe5b9060005260206000209060050201600101548154811015156146bc57fe5b9060005260206000209060040201600101546000818154811015156146dd57fe5b906000526020600020906004020160030160009054906101000a900460ff16151561470757600080fd5b3373ffffffffffffffffffffffffffffffffffffffff166001600460003373ffffffffffffffffffffffffffffffffffffffff1673ffffffffffffffffffffffffffffffffffffffff1681526020019081526020016000205481548110151561476c57fe5b906000526020600020906003020160020160009054906101000a900473ffffffffffffffffffffffffffffffffffffffff1673ffffffffffffffffffffffffffffffffffffffff161415156147c057600080fd5b806001600460003373ffffffffffffffffffffffffffffffffffffffff1673ffffffffffffffffffffffffffffffffffffffff1681526020019081526020016000205481548110151561480f57fe5b90600052602060002090600302016001015414151561482d57600080fd5b6001600460003373ffffffffffffffffffffffffffffffffffffffff1673ffffffffffffffffffffffffffffffffffffffff1681526020019081526020016000205481548110151561487b57fe5b906000526020600020906003020160020160149054906101000a900460ff1615156148a557600080fd5b6005838154811015156148b457fe5b9060005260206000209060050201600101546002818154811015156148d557fe5b906000526020600020906004020160030160009054906101000a900460ff1615156148ff57600080fd5b600060028281548110151561491057fe5b90600052602060002090600402016001015481548110151561492e57fe5b906000526020600020906004020160030160009054906101000a900460ff16151561495857600080fd5b8260058581548110151561496857fe5b906000526020600020906005020160040160006101000a81548160ff0219169083151502179055508215156005858154811015156149a257fe5b906000526020600020906005020160010154857f37d4c7ddef50d6ce487e13fb1c282cba409b966f839efc9e7c70eb808d8fdf566005888154811015156149e557fe5b9060005260206000209060050201600201600589815481101515614a0557fe5b9060005260206000209060050201600301546040518080602001838152602001828103825284818154600181600116156101000203166002900481526020019150805460018160011615610100020316600290048015614aa65780601f10614a7b57610100808354040283529160200191614aa6565b820191906000526020600020905b815481529060010190602001808311614a8957829003601f168201915b5050935050505060405180910390a450505050565b60008383600582815481101515614ace57fe5b906000526020600020906005020160040160009054906101000a900460ff161515614af857600080fd5b6002600583815481101515614b0957fe5b906000526020600020906005020160010154815481101515614b2757fe5b906000526020600020906004020160030160009054906101000a900460ff161515614b5157600080fd5b600681815481101515614b6057fe5b906000526020600020906004020160030160009054906101000a900460ff161515614b8a57600080fd5b6000600686815481101515614b9b57fe5b906000526020600020906004020160010154815481101515614bb957fe5b906000526020600020906004020160030160009054906101000a900460ff161515614be357600080fd5b600685815481101515614bf257fe5b9060005260206000209060040201600101546002600588815481101515614c1557fe5b906000526020600020906005020160010154815481101515614c3357fe5b906000526020600020906004020160010154141515614c5157600080fd5b34600587815481101515614c6157fe5b906000526020600020906005020160030154141515614c7f57600080fd5b6000600686815481101515614c9057fe5b906000526020600020906004020160010154815481101515614cae57fe5b906000526020600020906004020160010160009054906101000a900473ffffffffffffffffffffffffffffffffffffffff1673ffffffffffffffffffffffffffffffffffffffff166108fc349081150290604051600060405180830381858888f19350505050158015614d25573d6000803e3d6000fd5b506001600760806040519081016040528060078054905081526020018981526020018881526020018715158152509080600181540180825580915050906001820390600052602060002090600402016000909192909190915060008201518160000155602082015181600101556040820151816002015560608201518160030160006101000a81548160ff02191690831515021790555050500392508486847f579c37c177ad280a9c99d1ae1f55c21b1f56b7d6f5a31a84c21cf1b4084c0d4287604051808215151515815260200191505060405180910390a4505050505050565b6000600883815481101515614e1857fe5b906000526020600020906003020160010154600081815481101515614e3957fe5b906000526020600020906004020160030160009054906101000a900460ff161515614e6357600080fd5b3373ffffffffffffffffffffffffffffffffffffffff166001600460003373ffffffffffffffffffffffffffffffffffffffff1673ffffffffffffffffffffffffffffffffffffffff16815260200190815260200160002054815481101515614ec857fe5b906000526020600020906003020160020160009054906101000a900473ffffffffffffffffffffffffffffffffffffffff1673ffffffffffffffffffffffffffffffffffffffff16141515614f1c57600080fd5b806001600460003373ffffffffffffffffffffffffffffffffffffffff1673ffffffffffffffffffffffffffffffffffffffff16815260200190815260200160002054815481101515614f6b57fe5b906000526020600020906003020160010154141515614f8957600080fd5b6001600460003373ffffffffffffffffffffffffffffffffffffffff1673ffffffffffffffffffffffffffffffffffffffff16815260200190815260200160002054815481101515614fd757fe5b906000526020600020906003020160020160149054906101000a900460ff16151561500157600080fd5b848460058281548110151561501257fe5b906000526020600020906005020160040160009054906101000a900460ff16151561503c57600080fd5b600260058381548110151561504d57fe5b90600052602060002090600502016001015481548110151561506b57fe5b906000526020600020906004020160030160009054906101000a900460ff16151561509557600080fd5b6008818154811015156150a457fe5b906000526020600020906003020160020160149054906101000a900460ff1615156150ce57600080fd5b6008868154811015156150dd57fe5b906000526020600020906003020160010154600260058981548110151561510057fe5b90600052602060002090600502016001015481548110151561511e57fe5b90600052602060002090600402016001015414151561513c57600080fd5b6001600960806040519081016040528060098054905081526020018a81526020018981526020018815158152509080600181540180825580915050906001820390600052602060002090600402016000909192909190915060008201518160000155602082015181600101556040820151816002015560608201518160030160006101000a81548160ff02191690831515021790555050500393506009848154811015156151e657fe5b9060005260206000209060040201600c600060088981548110151561520757fe5b906000526020600020906003020160020160009054906101000a900473ffffffffffffffffffffffffffffffffffffffff1673ffffffffffffffffffffffffffffffffffffffff1673ffffffffffffffffffffffffffffffffffffffff16815260200190815260200160002060008981526020019081526020016000206000820154816000015560018201548160010155600282015481600201556003820160009054906101000a900460ff168160030160006101000a81548160ff0219169083151502179055509050506001600c60006008898154811015156152e757fe5b906000526020600020906003020160020160009054906101000a900473ffffffffffffffffffffffffffffffffffffffff1673ffffffffffffffffffffffffffffffffffffffff1673ffffffffffffffffffffffffffffffffffffffff168152602001908152602001600020600089815260200190815260200160002060030160006101000a81548160ff0219169083151502179055508587857fedf75704f0981af39b4d04bd56f54f9db8550023e10270cb7e5ebb64fae45c4288604051808215151515815260200191505060405180910390a450505050505050565b6001818154811015156153d457fe5b90600052602060002090600302016000915090508060000154908060010154908060020160009054906101000a900473ffffffffffffffffffffffffffffffffffffffff16908060020160149054906101000a900460ff16905084565b6000600880549050905090565b60028181548110151561544d57fe5b9060005260206000209060040201600091509050806000015490806001015490806002018054600181600116156101000203166002900480601f0160208091040260200160405190810160405280929190818152602001828054600181600116156101000203166002900480156155055780601f106154da57610100808354040283529160200191615505565b820191906000526020600020905b8154815290600101906020018083116154e857829003601f168201915b5050505050908060030160009054906101000a900460ff16905084565b6000336000600360008373ffffffffffffffffffffffffffffffffffffffff1673ffffffffffffffffffffffffffffffffffffffff1681526020019081526020016000205414151561557357600080fd5b6001600060806040519081016040528060008054905081526020013373ffffffffffffffffffffffffffffffffffffffff16815260200188888080601f0160208091040260200160405190810160405280939291908181526020018383808284378201915050505050508152602001861515815250908060018154018082558091505090600182039060005260206000209060040201600090919290919091506000820151816000015560208201518160010160006101000a81548173ffffffffffffffffffffffffffffffffffffffff021916908373ffffffffffffffffffffffffffffffffffffffff1602179055506040820151816002019080519060200190615680929190615b24565b5060608201518160030160006101000a81548160ff021916908315150217905550505003915081600360003373ffffffffffffffffffffffffffffffffffffffff1673ffffffffffffffffffffffffffffffffffffffff168152602001908152602001600020819055508215153373ffffffffffffffffffffffffffffffffffffffff16837fabb3a47f1fe0cafcc7d1244b9ee67bac8ee05e9609edbfa0eb6b6ce2e4a9f09a8888604051808060200182810382528484828181526020019250808284378201915050935050505060405180910390a45050505050565b60008460008181548110151561576f57fe5b906000526020600020906004020160030160009054906101000a900460ff16151561579957600080fd5b3373ffffffffffffffffffffffffffffffffffffffff166001600460003373ffffffffffffffffffffffffffffffffffffffff1673ffffffffffffffffffffffffffffffffffffffff168152602001908152602001600020548154811015156157fe57fe5b906000526020600020906003020160020160009054906101000a900473ffffffffffffffffffffffffffffffffffffffff1673ffffffffffffffffffffffffffffffffffffffff1614151561585257600080fd5b806001600460003373ffffffffffffffffffffffffffffffffffffffff1673ffffffffffffffffffffffffffffffffffffffff168152602001908152602001600020548154811015156158a157fe5b9060005260206000209060030201600101541415156158bf57600080fd5b6001600460003373ffffffffffffffffffffffffffffffffffffffff1673ffffffffffffffffffffffffffffffffffffffff1681526020019081526020016000205481548110151561590d57fe5b906000526020600020906003020160020160149054906101000a900460ff16151561593757600080fd5b60016002608060405190810160405280600280549050815260200189815260200188888080601f016020809104026020016040519081016040528093929190818152602001838380828437820191505050505050815260200186151581525090806001815401808255809150509060018203906000526020600020906004020160009091929091909150600082015181600001556020820151816001015560408201518160020190805190602001906159f1929190615b24565b5060608201518160030160006101000a81548160ff021916908315150217905550505003915082151586837f43991df0a7398fd95d333544412de70d87e35828f12f8500ed26c5211f5f18e38888604051808060200182810382528484828181526020019250808284378201915050935050505060405180910390a4505050505050565b600b6020528060005260406000206000915090505481565b6080604051908101604052806000815260200160008152602001600081526020016000151581525090565b6080604051908101604052806000815260200160008152602001600081526020016000151581525090565b6080604051908101604052806000815260200160008152602001600073ffffffffffffffffffffffffffffffffffffffff1681526020016000151581525090565b828054600181600116156101000203166002900490600052602060002090601f016020900481019282601f10615b6557805160ff1916838001178555615b93565b82800160010185558215615b93579182015b82811115615b92578251825591602001919060010190615b77565b5b509050615ba09190615ba4565b5090565b615bc691905b80821115615bc2576000816000905550600101615baa565b5090565b905600a165627a7a723058209f6a6c761202e89642e388f4abecbc3fde9ac9495d408cd6ed8d19875422fee80029",
  "source": "pragma solidity ^0.4.23;\nimport \"./Organisations.sol\";\ncontract AcademicRecords is Organisations {\n\n    struct Subject {\n        uint id;\n        uint periodId;\n        string name;\n        uint price;\n        bool isActive;\n    }\n\n    struct Student {\n        uint id;\n        uint organisationId;\n        string studentCode;\n        bool isActive;\n    }\n\n    struct Enrollment {\n        uint id;\n        uint subjectId;\n        uint studentId;\n        bool isActive;\n    }\n\n    struct Professor {\n        uint id;\n        uint organisationId;\n        address professorAddress;\n        bool isActive;\n    }\n\n    struct Teaching {\n        uint id;\n        uint subjectId;\n        uint professorId;\n        bool isActive;\n    }\n\n    struct Grade {\n        uint id;\n        uint professorId;\n        uint enrollmentId;\n        int8 grade;\n        bool isActive;\n    }\n\n    Subject[] public subjects;\n    Student[] public students;\n    Enrollment[] public enrollments;\n    Professor[] public professors;\n    Teaching[] public teachings;\n    Grade[] public grades;\n\n    mapping(address => uint) public professorToProfessorId;\n    mapping(address => mapping(uint => Teaching)) public professorAndSubjectIdToTeachingId;\n\n    modifier professorNotExists(address _professorAddress) {\n\n        require(professorToProfessorId[_professorAddress] == 0);\n        _;\n    }\n\n    modifier subjectAndStudentActive(uint _subjectId, uint _studentId) {\n        require(subjects[_subjectId].isActive);\n        require(periods[subjects[_subjectId].periodId].isActive);\n        require(students[_studentId].isActive);\n        _;\n    }\n\n    modifier subjectAndProfessorActive(uint _subjectId, uint _professorId) {\n        require(subjects[_subjectId].isActive);\n        require(periods[subjects[_subjectId].periodId].isActive);\n        require(professors[_professorId].isActive);\n        _;\n    }\n\n    modifier professorCanGrade(uint _enrollmentId) {\n\n        Enrollment memory enrollment = enrollments[_enrollmentId];\n        require(enrollment.isActive);\n\n        require(students[enrollment.studentId].isActive);\n\n        require(subjects[enrollment.subjectId].isActive);\n\n        require(periods[subjects[enrollment.subjectId].periodId].isActive);\n\n        uint organisationId = periods[subjects[enrollment.subjectId].periodId].organisationId;\n        require(organisations[organisationId].isActive);\n\n        Professor memory professor = professors[professorToProfessorId[msg.sender]];\n        require(professor.isActive);\n\n        require(periods[subjects[enrollment.subjectId].periodId].organisationId == professor.organisationId);\n        require(students[enrollment.studentId].organisationId == professor.organisationId);\n\n        Teaching memory teaching = professorAndSubjectIdToTeachingId[msg.sender][enrollment.subjectId];\n        require(teaching.isActive);\n        require(teachings[teaching.id].isActive);\n        require(teaching.professorId == professorToProfessorId[msg.sender]);\n        _;\n    }\n\n    constructor() public {\n\n        subjects.push(Subject(0, 0, '0', 0, false));\n        students.push(Student(0, 0, '0', false));\n        enrollments.push(Enrollment(0, 0, 0, false));\n        professors.push(Professor(0, 0, 0, false));\n        teachings.push(Teaching(0, 0, 0, false));\n        grades.push(Grade(0, 0, 0, 0, false));       \n    }\n\n    function createSubject(uint _periodId, string _name, uint _price, bool _isActive) external\n        organisationAdministratorAndActive(periods[_periodId].organisationId)\n        periodActive(_periodId) {\n\n        uint id = subjects.push(Subject(subjects.length, _periodId, _name, _price, _isActive)) - 1;\n        emit SubjectCreated(id, _periodId, _name, _price, _isActive);\n    }\n\n    function updateSubject(uint _subjectId, bool _isActive) external\n        organisationAdministratorAndActive(periods[subjects[_subjectId].periodId].organisationId)\n        periodActive(subjects[_subjectId].periodId) {\n\n        subjects[_subjectId].isActive = _isActive;\n        emit SubjectUpdated(_subjectId, subjects[_subjectId].periodId, subjects[_subjectId].name, subjects[_subjectId].price, _isActive);\n    }\n\n    function createStudent(uint _organisationId, string _studentCode, bool _isActive) external\n        organisationAdministratorAndActive(_organisationId) {\n\n        uint id = students.push(Student(students.length, _organisationId, _studentCode, _isActive)) - 1;\n        emit StudentCreated(id, _organisationId, _studentCode, _isActive);\n    }\n\n    function updateStudent(uint _studentId, bool _isActive) external\n        organisationAdministratorAndActive(students[_studentId].organisationId) {\n\n        students[_studentId].isActive = _isActive;\n        emit StudentUpdated(_studentId, students[_studentId].organisationId, students[_studentId].studentCode, _isActive);\n    }\n\n    function createEnrollment(uint _subjectId, uint _studentId, bool _isActive) external\n        subjectAndStudentActive(_subjectId, _studentId) payable {\n\n        require(organisations[students[_studentId].organisationId].isActive);\n        require(periods[subjects[_subjectId].periodId].organisationId == students[_studentId].organisationId);\n        require(subjects[_subjectId].price == msg.value);\n\n        organisations[students[_studentId].organisationId].ownerAddress.transfer(msg.value);\n\n        uint id = enrollments.push(Enrollment(enrollments.length, _subjectId, _studentId, _isActive)) - 1;\n        emit EnrollmentCreated(id, _subjectId, _studentId, _isActive);\n    }\n\n    function updateEnrollment(uint _enrollmentId, bool _isActive) external\n        organisationAdministratorAndActive(students[enrollments[_enrollmentId].studentId].organisationId)\n        subjectAndStudentActive(enrollments[_enrollmentId].subjectId, enrollments[_enrollmentId].studentId) {\n\n        enrollments[_enrollmentId].isActive = _isActive;\n        emit EnrollmentUpdated(_enrollmentId, enrollments[_enrollmentId].subjectId, enrollments[_enrollmentId].studentId, _isActive);\n    }\n\n    function createProfessor(uint _organisationId, address _professorAddress, bool _isActive) external\n        organisationAdministratorAndActive(_organisationId)\n        professorNotExists(_professorAddress) {\n\n        uint id = professors.push(Professor(professors.length, _organisationId, _professorAddress, _isActive)) - 1;\n        professorToProfessorId[_professorAddress] = id;\n        emit ProfessorCreated(id, _organisationId, _professorAddress, _isActive);\n    }\n\n    function updateProfessor(uint _professorId, bool _isActive) external\n        organisationAdministratorAndActive(professors[_professorId].organisationId) {\n\n        professors[_professorId].isActive = _isActive;\n        emit ProfessorUpdated(_professorId, professors[_professorId].organisationId, professors[_professorId].professorAddress, _isActive);\n    }\n\n    function createTeaching(uint _subjectId, uint _professorId, bool _isActive) external\n        organisationAdministratorAndActive(professors[_professorId].organisationId)\n        subjectAndProfessorActive(_subjectId, _professorId) {\n\n        require(periods[subjects[_subjectId].periodId].organisationId == professors[_professorId].organisationId);\n\n        uint id = teachings.push(Teaching(teachings.length, _subjectId, _professorId, _isActive)) - 1;\n        professorAndSubjectIdToTeachingId[professors[_professorId].professorAddress][_subjectId] = teachings[id];\n        professorAndSubjectIdToTeachingId[professors[_professorId].professorAddress][_subjectId].isActive = true;\n        emit TeachingCreated(id, _subjectId, _professorId, _isActive);\n    }\n\n    function updateTeaching(uint _teachingId, bool _isActive) external\n        organisationAdministratorAndActive(professors[teachings[_teachingId].professorId].organisationId)\n        subjectAndProfessorActive(teachings[_teachingId].subjectId, teachings[_teachingId].professorId) {\n\n        teachings[_teachingId].isActive = _isActive;\n        emit TeachingUpdated(_teachingId, teachings[_teachingId].subjectId, teachings[_teachingId].professorId, _isActive);\n    }\n\n    function createGrade(uint _enrollmentId, int8 _grade, bool _isActive) external\n        professorCanGrade(_enrollmentId) {\n\n        uint id = grades.push(Grade(grades.length, professorToProfessorId[msg.sender], _enrollmentId, _grade, _isActive)) - 1;\n        emit GradeCreated(id, professorToProfessorId[msg.sender], _enrollmentId, _grade, _isActive);\n    }\n\n    function updateGrade(uint _gradeId, bool _isActive) external\n        professorCanGrade(grades[_gradeId].enrollmentId) {\n\n        grades[_gradeId].isActive = _isActive;\n        emit GradeUpdated(_gradeId, professorToProfessorId[msg.sender], grades[_gradeId].enrollmentId, grades[_gradeId].grade, _isActive);\n    }\n\n    function getTeachingIdByProfessorAddress(address _professorAddress, uint _subjectId) external view \n        returns(uint teachingId, uint subjectId, uint professorId, bool isActive) {\n\n        Teaching memory teaching = professorAndSubjectIdToTeachingId[_professorAddress][_subjectId];\n        teachingId = teaching.id;\n        subjectId = teaching.subjectId;\n        professorId = teaching.professorId;\n        isActive = teaching.isActive;\n    }\n\n    function getSubjectsLength() external view returns(uint) {\n\n        return subjects.length;\n    }\n\n    function getStudentsLength() external view returns(uint) {\n\n        return students.length;\n    }\n\n    function getEnrollmentsLength() external view returns(uint) {\n\n        return enrollments.length;\n    }\n\n    function getProfessorsLength() external view returns(uint) {\n\n        return professors.length;\n    }\n\n    function getTeachingsLength() external view returns(uint) {\n\n        return teachings.length;\n    }\n\n    function getGradesLength() external view returns(uint) {\n\n        return grades.length;\n    }\n\n    event SubjectCreated(uint indexed subjectId, uint indexed periodId, string name, uint price, bool indexed isActive);\n    event SubjectUpdated(uint indexed subjectId, uint indexed periodId, string name, uint price, bool indexed isActive);\n\n    event StudentCreated(uint indexed studentId, uint indexed organisationId, string studentCode, bool indexed isActive);\n    event StudentUpdated(uint indexed studentId, uint indexed organisationId, string studentCode, bool indexed isActive);\n\n    event EnrollmentCreated(uint indexed enrollmentId, uint indexed subjectId, uint indexed studentId, bool isActive);\n    event EnrollmentUpdated(uint indexed enrollmentId, uint indexed subjectId, uint indexed studentId, bool isActive);\n\n    event ProfessorCreated(uint indexed professorId, uint indexed organisationId, address indexed professorAddress, bool isActive);\n    event ProfessorUpdated(uint indexed professorId, uint indexed organisationId, address indexed professorAddress, bool isActive);\n\n    event TeachingCreated(uint indexed teachingId, uint indexed subjectId, uint indexed professorId, bool isActive);\n    event TeachingUpdated(uint indexed teachingId, uint indexed subjectId, uint indexed professorId, bool isActive);\n\n    event GradeCreated(uint indexed gradeId, uint indexed professorId, uint indexed enrollmentId, int8 grade, bool isActive);\n    event GradeUpdated(uint indexed gradeId, uint indexed professorId, uint indexed enrollmentId, int8 grade, bool isActive);\n\n    /*\n    event SubjectEvent(uint indexed subjectId, uint indexed periodId, string name, uint price, bool isActive);\n    event StudentEvent(uint indexed studentId, uint indexed organisationId, string studentCode, bool indexed isActive);\n    event EnrollmentEvent(uint indexed enrollmentId, uint indexed subjectId, uint indexed studentId, bool isActive);\n    event ProfessorEvent(uint indexed professorId, uint indexed organisationId, address indexed professorAddress, bool isActive);\n    event TeachingEvent(uint indexed teachingId, uint indexed subjectId, uint indexed professorId, bool isActive);\n    event GradeEvent(uint indexed gradeId, uint indexed professorId, uint indexed enrollmentId, int8 grade, bool isActive);\n    */\n}",
  "sourcePath": "/home/adolfo/Proyectos/proyecto-fin-master/contracts/AcademicRecords.sol",
  "compiler": {
    "name": "solc",
    "version": "0.4.24+commit.e67f0147.Emscripten.clang"
  },
  "schemaVersion": "2.0.1",
  "updatedAt": "2018-11-04T15:44:15.318Z"
}