{
  "contractName": "HelloWorld",
  "abi": [
    {
      "constant": true,
      "inputs": [
        {
          "name": "",
          "type": "address"
        }
      ],
      "name": "ownerToElementId",
      "outputs": [
        {
          "name": "",
          "type": "uint256"
        }
      ],
      "payable": false,
      "stateMutability": "view",
      "type": "function"
    },
    {
      "constant": true,
      "inputs": [
        {
          "name": "",
          "type": "uint256"
        }
      ],
      "name": "myArray",
      "outputs": [
        {
          "name": "id",
          "type": "uint256"
        },
        {
          "name": "owner",
          "type": "address"
        },
        {
          "name": "name",
          "type": "string"
        }
      ],
      "payable": false,
      "stateMutability": "view",
      "type": "function"
    },
    {
      "anonymous": false,
      "inputs": [
        {
          "indexed": true,
          "name": "id",
          "type": "uint256"
        },
        {
          "indexed": true,
          "name": "owner",
          "type": "address"
        },
        {
          "indexed": false,
          "name": "name",
          "type": "string"
        }
      ],
      "name": "ElementCreated",
      "type": "event"
    },
    {
      "constant": false,
      "inputs": [
        {
          "name": "_name",
          "type": "string"
        }
      ],
      "name": "addElement",
      "outputs": [],
      "payable": false,
      "stateMutability": "nonpayable",
      "type": "function"
    },
    {
      "constant": false,
      "inputs": [
        {
          "name": "_address",
          "type": "address"
        }
      ],
      "name": "payment",
      "outputs": [],
      "payable": true,
      "stateMutability": "payable",
      "type": "function"
    },
    {
      "constant": true,
      "inputs": [
        {
          "name": "_ownerAddress",
          "type": "address"
        }
      ],
      "name": "getOwnerToElementId",
      "outputs": [
        {
          "name": "elementId",
          "type": "uint256"
        }
      ],
      "payable": false,
      "stateMutability": "view",
      "type": "function"
    }
  ],
  "bytecode": "0x608060405234801561001057600080fd5b5061077b806100206000396000f30060806040526004361061006d576000357c0100000000000000000000000000000000000000000000000000000000900463ffffffff1680631db83f86146100725780633b92f3df146100c9578063744f3198146100ff57806375789f0114610156578063cc3e57d914610191575b600080fd5b34801561007e57600080fd5b506100b3600480360381019080803573ffffffffffffffffffffffffffffffffffffffff169060200190929190505050610271565b6040518082815260200191505060405180910390f35b6100fd600480360381019080803573ffffffffffffffffffffffffffffffffffffffff1690602001909291905050506102ba565b005b34801561010b57600080fd5b50610140600480360381019080803573ffffffffffffffffffffffffffffffffffffffff169060200190929190505050610304565b6040518082815260200191505060405180910390f35b34801561016257600080fd5b5061018f60048036038101908080359060200190820180359060200191909192939192939050505061031c565b005b34801561019d57600080fd5b506101bc600480360381019080803590602001909291905050506105b9565b604051808481526020018373ffffffffffffffffffffffffffffffffffffffff1673ffffffffffffffffffffffffffffffffffffffff16815260200180602001828103825283818151815260200191508051906020019080838360005b83811015610234578082015181840152602081019050610219565b50505050905090810190601f1680156102615780820380516001836020036101000a031916815260200191505b5094505050505060405180910390f35b6000600160008373ffffffffffffffffffffffffffffffffffffffff1673ffffffffffffffffffffffffffffffffffffffff168152602001908152602001600020549050919050565b8073ffffffffffffffffffffffffffffffffffffffff166108fc349081150290604051600060405180830381858888f19350505050158015610300573d6000803e3d6000fd5b5050565b60016020528060005260406000206000915090505481565b600080600160003373ffffffffffffffffffffffffffffffffffffffff1673ffffffffffffffffffffffffffffffffffffffff1681526020019081526020016000205490506000808054905014806103f05750806000805490501180156103ef57503373ffffffffffffffffffffffffffffffffffffffff166000828154811015156103a457fe5b906000526020600020906003020160010160009054906101000a900473ffffffffffffffffffffffffffffffffffffffff1673ffffffffffffffffffffffffffffffffffffffff1614155b5b15156103fb57600080fd5b6001600060606040519081016040528060008054905081526020013373ffffffffffffffffffffffffffffffffffffffff16815260200187878080601f016020809104026020016040519081016040528093929190818152602001838380828437820191505050505050815250908060018154018082558091505090600182039060005260206000209060030201600090919290919091506000820151816000015560208201518160010160006101000a81548173ffffffffffffffffffffffffffffffffffffffff021916908373ffffffffffffffffffffffffffffffffffffffff16021790555060408201518160020190805190602001906105009291906106aa565b50505003915081600160003373ffffffffffffffffffffffffffffffffffffffff1673ffffffffffffffffffffffffffffffffffffffff168152602001908152602001600020819055503373ffffffffffffffffffffffffffffffffffffffff16827f7b67c26984726a139e433c55ef96af182f44e6ebca5225b821906573e43557ee8686604051808060200182810382528484828181526020019250808284378201915050935050505060405180910390a350505050565b6000818154811015156105c857fe5b90600052602060002090600302016000915090508060000154908060010160009054906101000a900473ffffffffffffffffffffffffffffffffffffffff1690806002018054600181600116156101000203166002900480601f0160208091040260200160405190810160405280929190818152602001828054600181600116156101000203166002900480156106a05780601f10610675576101008083540402835291602001916106a0565b820191906000526020600020905b81548152906001019060200180831161068357829003601f168201915b5050505050905083565b828054600181600116156101000203166002900490600052602060002090601f016020900481019282601f106106eb57805160ff1916838001178555610719565b82800160010185558215610719579182015b828111156107185782518255916020019190600101906106fd565b5b509050610726919061072a565b5090565b61074c91905b80821115610748576000816000905550600101610730565b5090565b905600a165627a7a72305820db57ac9e599147cc3b6ef764ddef80828e616607339ab75b8278af850d6c8ee90029",
  "source": "pragma solidity ^0.4.21;\ncontract HelloWorld {\n\n    event ElementCreated(uint indexed id, address indexed owner, string name);\n\n    struct MyStruct {\n        uint id;\n        address owner;\n        string name;\n    }\n\n    MyStruct[] public myArray;\n\n    mapping(address => uint) public ownerToElementId;\n\n    modifier ownerNotExists() {\n\n        uint elementId = ownerToElementId[msg.sender];\n        require(myArray.length == 0 || (myArray.length > elementId && myArray[elementId].owner != msg.sender));\n        _;\n    }\n\n    function addElement(string _name) external \n        ownerNotExists() {\n\n        uint id = myArray.push(MyStruct(myArray.length, msg.sender, _name)) - 1;\n        ownerToElementId[msg.sender] = id;\n        emit ElementCreated(id, msg.sender, _name);\n    }\n\n    function payment(address _address) external payable {\n        _address.transfer(msg.value);\n    } \n\n    function getOwnerToElementId(address _ownerAddress) external view \n        returns(uint elementId) {\n\n        elementId = ownerToElementId[_ownerAddress];\n    }\n}\n\n",
  "sourcePath": "/home/adolfo/Proyectos/proyecto-fin-master/contracts/HelloWorld.sol",
  "compiler": {
    "name": "solc",
    "version": "0.4.24+commit.e67f0147.Emscripten.clang"
  },
  "schemaVersion": "2.0.1",
  "updatedAt": "2018-11-04T15:44:15.295Z"
}