{
  "contractName": "Organisations",
  "abi": [
    {
      "constant": true,
      "inputs": [
        {
          "name": "",
          "type": "uint256"
        }
      ],
      "name": "organisations",
      "outputs": [
        {
          "name": "id",
          "type": "uint256"
        },
        {
          "name": "ownerAddress",
          "type": "address"
        },
        {
          "name": "name",
          "type": "string"
        },
        {
          "name": "isActive",
          "type": "bool"
        }
      ],
      "payable": false,
      "stateMutability": "view",
      "type": "function"
    },
    {
      "constant": true,
      "inputs": [
        {
          "name": "",
          "type": "address"
        }
      ],
      "name": "ownerToOrganizationId",
      "outputs": [
        {
          "name": "",
          "type": "uint256"
        }
      ],
      "payable": false,
      "stateMutability": "view",
      "type": "function"
    },
    {
      "constant": true,
      "inputs": [
        {
          "name": "",
          "type": "address"
        }
      ],
      "name": "administratorToAdministratorId",
      "outputs": [
        {
          "name": "",
          "type": "uint256"
        }
      ],
      "payable": false,
      "stateMutability": "view",
      "type": "function"
    },
    {
      "constant": true,
      "inputs": [
        {
          "name": "",
          "type": "uint256"
        }
      ],
      "name": "administrators",
      "outputs": [
        {
          "name": "id",
          "type": "uint256"
        },
        {
          "name": "organisationId",
          "type": "uint256"
        },
        {
          "name": "administratorAddress",
          "type": "address"
        },
        {
          "name": "isActive",
          "type": "bool"
        }
      ],
      "payable": false,
      "stateMutability": "view",
      "type": "function"
    },
    {
      "constant": true,
      "inputs": [
        {
          "name": "",
          "type": "uint256"
        }
      ],
      "name": "periods",
      "outputs": [
        {
          "name": "id",
          "type": "uint256"
        },
        {
          "name": "organisationId",
          "type": "uint256"
        },
        {
          "name": "name",
          "type": "string"
        },
        {
          "name": "isActive",
          "type": "bool"
        }
      ],
      "payable": false,
      "stateMutability": "view",
      "type": "function"
    },
    {
      "inputs": [],
      "payable": false,
      "stateMutability": "nonpayable",
      "type": "constructor"
    },
    {
      "anonymous": false,
      "inputs": [
        {
          "indexed": true,
          "name": "organisationId",
          "type": "uint256"
        },
        {
          "indexed": true,
          "name": "owner",
          "type": "address"
        },
        {
          "indexed": false,
          "name": "name",
          "type": "string"
        },
        {
          "indexed": true,
          "name": "isActive",
          "type": "bool"
        }
      ],
      "name": "OrganisationCreated",
      "type": "event"
    },
    {
      "anonymous": false,
      "inputs": [
        {
          "indexed": true,
          "name": "organisationId",
          "type": "uint256"
        },
        {
          "indexed": true,
          "name": "owner",
          "type": "address"
        },
        {
          "indexed": false,
          "name": "name",
          "type": "string"
        },
        {
          "indexed": true,
          "name": "isActive",
          "type": "bool"
        }
      ],
      "name": "OrganisationOwnerUpdated",
      "type": "event"
    },
    {
      "anonymous": false,
      "inputs": [
        {
          "indexed": true,
          "name": "organisationId",
          "type": "uint256"
        },
        {
          "indexed": true,
          "name": "owner",
          "type": "address"
        },
        {
          "indexed": false,
          "name": "name",
          "type": "string"
        },
        {
          "indexed": true,
          "name": "isActive",
          "type": "bool"
        }
      ],
      "name": "OrganisationStateUpdated",
      "type": "event"
    },
    {
      "anonymous": false,
      "inputs": [
        {
          "indexed": true,
          "name": "administratorId",
          "type": "uint256"
        },
        {
          "indexed": true,
          "name": "organisationId",
          "type": "uint256"
        },
        {
          "indexed": true,
          "name": "administratorAddress",
          "type": "address"
        },
        {
          "indexed": false,
          "name": "isActive",
          "type": "bool"
        }
      ],
      "name": "AdministratorCreated",
      "type": "event"
    },
    {
      "anonymous": false,
      "inputs": [
        {
          "indexed": true,
          "name": "administratorId",
          "type": "uint256"
        },
        {
          "indexed": true,
          "name": "organisationId",
          "type": "uint256"
        },
        {
          "indexed": true,
          "name": "administratorAddress",
          "type": "address"
        },
        {
          "indexed": false,
          "name": "isActive",
          "type": "bool"
        }
      ],
      "name": "AdministratorUpdated",
      "type": "event"
    },
    {
      "anonymous": false,
      "inputs": [
        {
          "indexed": true,
          "name": "periodId",
          "type": "uint256"
        },
        {
          "indexed": true,
          "name": "organisationId",
          "type": "uint256"
        },
        {
          "indexed": false,
          "name": "name",
          "type": "string"
        },
        {
          "indexed": true,
          "name": "isActive",
          "type": "bool"
        }
      ],
      "name": "PeriodCreated",
      "type": "event"
    },
    {
      "anonymous": false,
      "inputs": [
        {
          "indexed": true,
          "name": "periodId",
          "type": "uint256"
        },
        {
          "indexed": true,
          "name": "organisationId",
          "type": "uint256"
        },
        {
          "indexed": false,
          "name": "name",
          "type": "string"
        },
        {
          "indexed": true,
          "name": "isActive",
          "type": "bool"
        }
      ],
      "name": "PeriodUpdated",
      "type": "event"
    },
    {
      "constant": false,
      "inputs": [
        {
          "name": "_name",
          "type": "string"
        },
        {
          "name": "_isActive",
          "type": "bool"
        }
      ],
      "name": "createOrganisation",
      "outputs": [],
      "payable": false,
      "stateMutability": "nonpayable",
      "type": "function"
    },
    {
      "constant": false,
      "inputs": [
        {
          "name": "_organisationId",
          "type": "uint256"
        },
        {
          "name": "_ownerAddress",
          "type": "address"
        }
      ],
      "name": "updateOrganisationOwner",
      "outputs": [],
      "payable": false,
      "stateMutability": "nonpayable",
      "type": "function"
    },
    {
      "constant": false,
      "inputs": [
        {
          "name": "_organisationId",
          "type": "uint256"
        },
        {
          "name": "_isActive",
          "type": "bool"
        }
      ],
      "name": "updateOrganisationState",
      "outputs": [],
      "payable": false,
      "stateMutability": "nonpayable",
      "type": "function"
    },
    {
      "constant": false,
      "inputs": [
        {
          "name": "_organisationId",
          "type": "uint256"
        },
        {
          "name": "_administratorAddress",
          "type": "address"
        },
        {
          "name": "_isActive",
          "type": "bool"
        }
      ],
      "name": "createAdministrator",
      "outputs": [],
      "payable": false,
      "stateMutability": "nonpayable",
      "type": "function"
    },
    {
      "constant": false,
      "inputs": [
        {
          "name": "_administratorId",
          "type": "uint256"
        },
        {
          "name": "_isActive",
          "type": "bool"
        }
      ],
      "name": "updateAdministrator",
      "outputs": [],
      "payable": false,
      "stateMutability": "nonpayable",
      "type": "function"
    },
    {
      "constant": false,
      "inputs": [
        {
          "name": "_organisationId",
          "type": "uint256"
        },
        {
          "name": "_name",
          "type": "string"
        },
        {
          "name": "_isActive",
          "type": "bool"
        }
      ],
      "name": "createPeriod",
      "outputs": [],
      "payable": false,
      "stateMutability": "nonpayable",
      "type": "function"
    },
    {
      "constant": false,
      "inputs": [
        {
          "name": "_periodId",
          "type": "uint256"
        },
        {
          "name": "_isActive",
          "type": "bool"
        }
      ],
      "name": "updatePeriod",
      "outputs": [],
      "payable": false,
      "stateMutability": "nonpayable",
      "type": "function"
    },
    {
      "constant": true,
      "inputs": [],
      "name": "getOrganisationsLength",
      "outputs": [
        {
          "name": "",
          "type": "uint256"
        }
      ],
      "payable": false,
      "stateMutability": "view",
      "type": "function"
    },
    {
      "constant": true,
      "inputs": [],
      "name": "getAdministratorsLength",
      "outputs": [
        {
          "name": "",
          "type": "uint256"
        }
      ],
      "payable": false,
      "stateMutability": "view",
      "type": "function"
    },
    {
      "constant": true,
      "inputs": [],
      "name": "getPeriodsLength",
      "outputs": [
        {
          "name": "",
          "type": "uint256"
        }
      ],
      "payable": false,
      "stateMutability": "view",
      "type": "function"
    }
  ],
  "bytecode": "0x60806040523480156200001157600080fd5b50600060806040519081016040528060008152602001600073ffffffffffffffffffffffffffffffffffffffff1681526020016040805190810160405280600181526020017f3000000000000000000000000000000000000000000000000000000000000000815250815260200160001515815250908060018154018082558091505090600182039060005260206000209060040201600090919290919091506000820151816000015560208201518160010160006101000a81548173ffffffffffffffffffffffffffffffffffffffff021916908373ffffffffffffffffffffffffffffffffffffffff16021790555060408201518160020190805190602001906200012092919062000312565b5060608201518160030160006101000a81548160ff02191690831515021790555050505060016080604051908101604052806000815260200160008152602001600073ffffffffffffffffffffffffffffffffffffffff1681526020016000151581525090806001815401808255809150509060018203906000526020600020906003020160009091929091909150600082015181600001556020820151816001015560408201518160020160006101000a81548173ffffffffffffffffffffffffffffffffffffffff021916908373ffffffffffffffffffffffffffffffffffffffff16021790555060608201518160020160146101000a81548160ff021916908315150217905550505050600260806040519081016040528060008152602001600081526020016040805190810160405280600181526020017f30000000000000000000000000000000000000000000000000000000000000008152508152602001600015158152509080600181540180825580915050906001820390600052602060002090600402016000909192909190915060008201518160000155602082015181600101556040820151816002019080519060200190620002e892919062000312565b5060608201518160030160006101000a81548160ff021916908315150217905550505050620003c1565b828054600181600116156101000203166002900490600052602060002090601f016020900481019282601f106200035557805160ff191683800117855562000386565b8280016001018555821562000386579182015b828111156200038557825182559160200191906001019062000368565b5b50905062000395919062000399565b5090565b620003be91905b80821115620003ba576000816000905550600101620003a0565b5090565b90565b611b0580620003d16000396000f3006080604052600436106100db576000357c0100000000000000000000000000000000000000000000000000000000900463ffffffff1680631808504e146100e0578063246f8c441461012d5780632a05db9d1461021857806346d9f0d0146102435780635d8160d21461029c5780635e62a6f5146102c75780636b8e68f41461031e57806371aa2f64146103575780637d1d7b7d14610390578063a1a2baad146103e7578063a75d16a214610412578063d89d15101461044b578063ea4a1104146104d1578063eb1a9c7314610590578063ed2e30de146105d7575b600080fd5b3480156100ec57600080fd5b5061012b60048036038101908080359060200190929190803573ffffffffffffffffffffffffffffffffffffffff169060200190929190505050610628565b005b34801561013957600080fd5b5061015860048036038101908080359060200190929190505050610900565b604051808581526020018473ffffffffffffffffffffffffffffffffffffffff1673ffffffffffffffffffffffffffffffffffffffff1681526020018060200183151515158152602001828103825284818151815260200191508051906020019080838360005b838110156101da5780820151818401526020810190506101bf565b50505050905090810190601f1680156102075780820380516001836020036101000a031916815260200191505b509550505050505060405180910390f35b34801561022457600080fd5b5061022d610a04565b6040518082815260200191505060405180910390f35b34801561024f57600080fd5b5061029a60048036038101908080359060200190929190803573ffffffffffffffffffffffffffffffffffffffff169060200190929190803515159060200190929190505050610a11565b005b3480156102a857600080fd5b506102b1610ca6565b6040518082815260200191505060405180910390f35b3480156102d357600080fd5b50610308600480360381019080803573ffffffffffffffffffffffffffffffffffffffff169060200190929190505050610cb2565b6040518082815260200191505060405180910390f35b34801561032a57600080fd5b5061035560048036038101908080359060200190929190803515159060200190929190505050610cca565b005b34801561036357600080fd5b5061038e60048036038101908080359060200190929190803515159060200190929190505050610e8f565b005b34801561039c57600080fd5b506103d1600480360381019080803573ffffffffffffffffffffffffffffffffffffffff16906020019092919050505061103a565b6040518082815260200191505060405180910390f35b3480156103f357600080fd5b506103fc611052565b6040518082815260200191505060405180910390f35b34801561041e57600080fd5b506104496004803603810190808035906020019092919080351515906020019092919050505061105f565b005b34801561045757600080fd5b5061047660048036038101908080359060200190929190505050611391565b604051808581526020018481526020018373ffffffffffffffffffffffffffffffffffffffff1673ffffffffffffffffffffffffffffffffffffffff1681526020018215151515815260200194505050505060405180910390f35b3480156104dd57600080fd5b506104fc600480360381019080803590602001909291905050506113fd565b604051808581526020018481526020018060200183151515158152602001828103825284818151815260200191508051906020019080838360005b83811015610552578082015181840152602081019050610537565b50505050905090810190601f16801561057f5780820380516001836020036101000a031916815260200191505b509550505050505060405180910390f35b34801561059c57600080fd5b506105d56004803603810190808035906020019082018035906020019190919293919293908035151590602001909291905050506114e1565b005b3480156105e357600080fd5b506106266004803603810190808035906020019092919080359060200190820180359060200191909192939192939080351515906020019092919050505061171c565b005b813373ffffffffffffffffffffffffffffffffffffffff1660008281548110151561064f57fe5b906000526020600020906004020160010160009054906101000a900473ffffffffffffffffffffffffffffffffffffffff1673ffffffffffffffffffffffffffffffffffffffff161415156106a357600080fd5b816000600360008373ffffffffffffffffffffffffffffffffffffffff1673ffffffffffffffffffffffffffffffffffffffff168152602001908152602001600020541415156106f257600080fd5b8260008581548110151561070257fe5b906000526020600020906004020160010160006101000a81548173ffffffffffffffffffffffffffffffffffffffff021916908373ffffffffffffffffffffffffffffffffffffffff16021790555083600360008573ffffffffffffffffffffffffffffffffffffffff1673ffffffffffffffffffffffffffffffffffffffff168152602001908152602001600020819055506000600360003373ffffffffffffffffffffffffffffffffffffffff1673ffffffffffffffffffffffffffffffffffffffff168152602001908152602001600020819055506000848154811015156107e957fe5b906000526020600020906004020160030160009054906101000a900460ff1615158373ffffffffffffffffffffffffffffffffffffffff16857f0e3cd7e56464e492650322c1b6c273b2c4066ec32a8cfbce716c9d46e084467060008881548110151561085257fe5b906000526020600020906004020160020160405180806020018281038252838181546001816001161561010002031660029004815260200191508054600181600116156101000203166002900480156108ec5780601f106108c1576101008083540402835291602001916108ec565b820191906000526020600020905b8154815290600101906020018083116108cf57829003601f168201915b50509250505060405180910390a450505050565b60008181548110151561090f57fe5b90600052602060002090600402016000915090508060000154908060010160009054906101000a900473ffffffffffffffffffffffffffffffffffffffff1690806002018054600181600116156101000203166002900480601f0160208091040260200160405190810160405280929190818152602001828054600181600116156101000203166002900480156109e75780601f106109bc576101008083540402835291602001916109e7565b820191906000526020600020905b8154815290600101906020018083116109ca57829003601f168201915b5050505050908060030160009054906101000a900460ff16905084565b6000600280549050905090565b600080843373ffffffffffffffffffffffffffffffffffffffff16600082815481101515610a3b57fe5b906000526020600020906004020160010160009054906101000a900473ffffffffffffffffffffffffffffffffffffffff1673ffffffffffffffffffffffffffffffffffffffff16141515610a8f57600080fd5b600081815481101515610a9e57fe5b906000526020600020906004020160030160009054906101000a900460ff161515610ac857600080fd5b600460008673ffffffffffffffffffffffffffffffffffffffff1673ffffffffffffffffffffffffffffffffffffffff168152602001908152602001600020549250600083141515610b1957600080fd5b60018060806040519081016040528060018054905081526020018981526020018873ffffffffffffffffffffffffffffffffffffffff16815260200187151581525090806001815401808255809150509060018203906000526020600020906003020160009091929091909150600082015181600001556020820151816001015560408201518160020160006101000a81548173ffffffffffffffffffffffffffffffffffffffff021916908373ffffffffffffffffffffffffffffffffffffffff16021790555060608201518160020160146101000a81548160ff021916908315150217905550505003915081600460008773ffffffffffffffffffffffffffffffffffffffff1673ffffffffffffffffffffffffffffffffffffffff168152602001908152602001600020819055508473ffffffffffffffffffffffffffffffffffffffff1686837f9e8615e3531a0bb3249e32dd1aac960110dc187e5b23b30147ed37c976b7034f87604051808215151515815260200191505060405180910390a4505050505050565b60008080549050905090565b60036020528060005260406000206000915090505481565b600182815481101515610cd957fe5b9060005260206000209060030201600101543373ffffffffffffffffffffffffffffffffffffffff16600082815481101515610d1157fe5b906000526020600020906004020160010160009054906101000a900473ffffffffffffffffffffffffffffffffffffffff1673ffffffffffffffffffffffffffffffffffffffff16141515610d6557600080fd5b600081815481101515610d7457fe5b906000526020600020906004020160030160009054906101000a900460ff161515610d9e57600080fd5b81600184815481101515610dae57fe5b906000526020600020906003020160020160146101000a81548160ff021916908315150217905550600183815481101515610de557fe5b906000526020600020906003020160020160009054906101000a900473ffffffffffffffffffffffffffffffffffffffff1673ffffffffffffffffffffffffffffffffffffffff16600184815481101515610e3c57fe5b906000526020600020906003020160010154847fc67715d5a459042e5fdea0081a8b543681ec5c384618cbc873d507d8636589b585604051808215151515815260200191505060405180910390a4505050565b813373ffffffffffffffffffffffffffffffffffffffff16600082815481101515610eb657fe5b906000526020600020906004020160010160009054906101000a900473ffffffffffffffffffffffffffffffffffffffff1673ffffffffffffffffffffffffffffffffffffffff16141515610f0a57600080fd5b81600084815481101515610f1a57fe5b906000526020600020906004020160030160006101000a81548160ff0219169083151502179055508115153373ffffffffffffffffffffffffffffffffffffffff16847ffa7cf4e4e9c69137f7726c8896cac67f853dbc1bbfcec3e02e590e2551138be9600087815481101515610f8d57fe5b906000526020600020906004020160020160405180806020018281038252838181546001816001161561010002031660029004815260200191508054600181600116156101000203166002900480156110275780601f10610ffc57610100808354040283529160200191611027565b820191906000526020600020905b81548152906001019060200180831161100a57829003601f168201915b50509250505060405180910390a4505050565b60046020528060005260406000206000915090505481565b6000600180549050905090565b60028281548110151561106e57fe5b90600052602060002090600402016001015460008181548110151561108f57fe5b906000526020600020906004020160030160009054906101000a900460ff1615156110b957600080fd5b3373ffffffffffffffffffffffffffffffffffffffff166001600460003373ffffffffffffffffffffffffffffffffffffffff1673ffffffffffffffffffffffffffffffffffffffff1681526020019081526020016000205481548110151561111e57fe5b906000526020600020906003020160020160009054906101000a900473ffffffffffffffffffffffffffffffffffffffff1673ffffffffffffffffffffffffffffffffffffffff1614151561117257600080fd5b806001600460003373ffffffffffffffffffffffffffffffffffffffff1673ffffffffffffffffffffffffffffffffffffffff168152602001908152602001600020548154811015156111c157fe5b9060005260206000209060030201600101541415156111df57600080fd5b6001600460003373ffffffffffffffffffffffffffffffffffffffff1673ffffffffffffffffffffffffffffffffffffffff1681526020019081526020016000205481548110151561122d57fe5b906000526020600020906003020160020160149054906101000a900460ff16151561125757600080fd5b8160028481548110151561126757fe5b906000526020600020906004020160030160006101000a81548160ff0219169083151502179055508115156002848154811015156112a157fe5b906000526020600020906004020160010154847fb4528fd95abb6155adfa88b15c9ed8be9b33d9f26188eb0233e67a4cc58561356002878154811015156112e457fe5b9060005260206000209060040201600201604051808060200182810382528381815460018160011615610100020316600290048152602001915080546001816001161561010002031660029004801561137e5780601f106113535761010080835404028352916020019161137e565b820191906000526020600020905b81548152906001019060200180831161136157829003601f168201915b50509250505060405180910390a4505050565b6001818154811015156113a057fe5b90600052602060002090600302016000915090508060000154908060010154908060020160009054906101000a900473ffffffffffffffffffffffffffffffffffffffff16908060020160149054906101000a900460ff16905084565b60028181548110151561140c57fe5b9060005260206000209060040201600091509050806000015490806001015490806002018054600181600116156101000203166002900480601f0160208091040260200160405190810160405280929190818152602001828054600181600116156101000203166002900480156114c45780601f10611499576101008083540402835291602001916114c4565b820191906000526020600020905b8154815290600101906020018083116114a757829003601f168201915b5050505050908060030160009054906101000a900460ff16905084565b6000336000600360008373ffffffffffffffffffffffffffffffffffffffff1673ffffffffffffffffffffffffffffffffffffffff1681526020019081526020016000205414151561153257600080fd5b6001600060806040519081016040528060008054905081526020013373ffffffffffffffffffffffffffffffffffffffff16815260200188888080601f0160208091040260200160405190810160405280939291908181526020018383808284378201915050505050508152602001861515815250908060018154018082558091505090600182039060005260206000209060040201600090919290919091506000820151816000015560208201518160010160006101000a81548173ffffffffffffffffffffffffffffffffffffffff021916908373ffffffffffffffffffffffffffffffffffffffff160217905550604082015181600201908051906020019061163f929190611a34565b5060608201518160030160006101000a81548160ff021916908315150217905550505003915081600360003373ffffffffffffffffffffffffffffffffffffffff1673ffffffffffffffffffffffffffffffffffffffff168152602001908152602001600020819055508215153373ffffffffffffffffffffffffffffffffffffffff16837fabb3a47f1fe0cafcc7d1244b9ee67bac8ee05e9609edbfa0eb6b6ce2e4a9f09a8888604051808060200182810382528484828181526020019250808284378201915050935050505060405180910390a45050505050565b60008460008181548110151561172e57fe5b906000526020600020906004020160030160009054906101000a900460ff16151561175857600080fd5b3373ffffffffffffffffffffffffffffffffffffffff166001600460003373ffffffffffffffffffffffffffffffffffffffff1673ffffffffffffffffffffffffffffffffffffffff168152602001908152602001600020548154811015156117bd57fe5b906000526020600020906003020160020160009054906101000a900473ffffffffffffffffffffffffffffffffffffffff1673ffffffffffffffffffffffffffffffffffffffff1614151561181157600080fd5b806001600460003373ffffffffffffffffffffffffffffffffffffffff1673ffffffffffffffffffffffffffffffffffffffff1681526020019081526020016000205481548110151561186057fe5b90600052602060002090600302016001015414151561187e57600080fd5b6001600460003373ffffffffffffffffffffffffffffffffffffffff1673ffffffffffffffffffffffffffffffffffffffff168152602001908152602001600020548154811015156118cc57fe5b906000526020600020906003020160020160149054906101000a900460ff1615156118f657600080fd5b60016002608060405190810160405280600280549050815260200189815260200188888080601f016020809104026020016040519081016040528093929190818152602001838380828437820191505050505050815260200186151581525090806001815401808255809150509060018203906000526020600020906004020160009091929091909150600082015181600001556020820151816001015560408201518160020190805190602001906119b0929190611a34565b5060608201518160030160006101000a81548160ff021916908315150217905550505003915082151586837f43991df0a7398fd95d333544412de70d87e35828f12f8500ed26c5211f5f18e38888604051808060200182810382528484828181526020019250808284378201915050935050505060405180910390a4505050505050565b828054600181600116156101000203166002900490600052602060002090601f016020900481019282601f10611a7557805160ff1916838001178555611aa3565b82800160010185558215611aa3579182015b82811115611aa2578251825591602001919060010190611a87565b5b509050611ab09190611ab4565b5090565b611ad691905b80821115611ad2576000816000905550600101611aba565b5090565b905600a165627a7a72305820b5bb83c01bed72de609512fed6a685d318632139c72b6ca53f246266f39621a70029",
  "source": "pragma solidity ^0.4.23;\ncontract Organisations {\n\n    struct Organisation {\n        uint id;\n        address ownerAddress;\n        string name;\n        bool isActive;\n    }\n\n    struct Administrator {\n        uint id; \n        uint organisationId;\n        address administratorAddress;\n        bool isActive;\n    }\n\n    struct Period {\n        uint id;\n        uint organisationId;\n        string name;\n        bool isActive;\n    }\n\n    Organisation[] public organisations;\n    Administrator[] public administrators;\n    Period[] public periods;\n\n    mapping(address => uint) public ownerToOrganizationId;\n    mapping(address => uint) public administratorToAdministratorId;\n\n    modifier ownerNotExists(address _ownerAddress) {\n        require(ownerToOrganizationId[_ownerAddress] == 0);\n        _;\n    }\n\n    modifier organisationOwner(uint _organisationId) {\n        require(organisations[_organisationId].ownerAddress == msg.sender);\n        _;\n    }\n\n    modifier organisationOwnerAndActive(uint _organisationId) {\n        require(organisations[_organisationId].ownerAddress == msg.sender);\n        require(organisations[_organisationId].isActive);\n        _;\n    }\n\n    modifier organisationAdministratorAndActive(uint _organisationId) {\n\n        require(organisations[_organisationId].isActive);\n        require(administrators[administratorToAdministratorId[msg.sender]].administratorAddress == msg.sender);\n        require(administrators[administratorToAdministratorId[msg.sender]].organisationId == _organisationId);\n        require(administrators[administratorToAdministratorId[msg.sender]].isActive);\n        _;\n    }\n\n    modifier periodActive(uint _periodId) {\n        require(periods[_periodId].isActive);\n        require(organisations[periods[_periodId].organisationId].isActive);\n        _;\n    }\n\n    constructor() public {\n        \n        organisations.push(Organisation(0, 0, '0', false));\n        administrators.push(Administrator(0, 0, 0, false));\n        periods.push(Period(0, 0, '0', false));\n    }\n\n    function createOrganisation(string _name, bool _isActive) external\n        ownerNotExists(msg.sender) {\n\n        uint id = organisations.push(Organisation(organisations.length, msg.sender, _name, _isActive)) - 1;\n        ownerToOrganizationId[msg.sender] = id;\n        emit OrganisationCreated(id, msg.sender, _name, _isActive);\n    }\n\n    function updateOrganisationOwner(uint _organisationId, address _ownerAddress) external\n        organisationOwner(_organisationId)\n        ownerNotExists(_ownerAddress) {\n\n        organisations[_organisationId].ownerAddress = _ownerAddress;\n        ownerToOrganizationId[_ownerAddress] = _organisationId;\n        ownerToOrganizationId[msg.sender] = 0;\n        emit OrganisationOwnerUpdated(_organisationId, _ownerAddress, organisations[_organisationId].name, organisations[_organisationId].isActive);\n    }\n\n    function updateOrganisationState(uint _organisationId, bool _isActive) external\n        organisationOwner(_organisationId) {\n\n        organisations[_organisationId].isActive = _isActive;\n        emit OrganisationStateUpdated(_organisationId, msg.sender, organisations[_organisationId].name, _isActive);\n    }\n\n    function createAdministrator(uint _organisationId, address _administratorAddress, bool _isActive) external\n        organisationOwnerAndActive(_organisationId) {\n\n        uint administratorId = administratorToAdministratorId[_administratorAddress];\n        require(administratorId == 0);\n\n        uint id = administrators.push(Administrator(administrators.length, _organisationId, _administratorAddress, _isActive)) - 1;\n        administratorToAdministratorId[_administratorAddress] = id;\n        emit AdministratorCreated(id, _organisationId, _administratorAddress, _isActive);\n    }\n\n    function updateAdministrator(uint _administratorId, bool _isActive) external\n        organisationOwnerAndActive(administrators[_administratorId].organisationId) {\n\n        administrators[_administratorId].isActive = _isActive;\n        emit AdministratorUpdated(_administratorId, administrators[_administratorId].organisationId, administrators[_administratorId].administratorAddress, _isActive);\n    }\n\n    function createPeriod(uint _organisationId, string _name, bool _isActive) external\n        organisationAdministratorAndActive(_organisationId) {\n\n        uint id = periods.push(Period(periods.length, _organisationId, _name, _isActive)) - 1;\n        emit PeriodCreated(id, _organisationId, _name, _isActive);\n    }\n\n    function updatePeriod(uint _periodId, bool _isActive) external\n        organisationAdministratorAndActive(periods[_periodId].organisationId) {\n\n        periods[_periodId].isActive = _isActive;\n        emit PeriodUpdated(_periodId, periods[_periodId].organisationId, periods[_periodId].name, _isActive);\n    }\n\n    function getOrganisationsLength() external view returns(uint) {\n\n        return organisations.length;\n    }\n\n    function getAdministratorsLength() external view returns(uint) {\n\n        return administrators.length;\n    }\n\n    function getPeriodsLength() external view returns(uint) {\n\n        return periods.length;\n    }\n\n    event OrganisationCreated(uint indexed organisationId, address indexed owner, string name, bool indexed isActive);\n    event OrganisationOwnerUpdated(uint indexed organisationId, address indexed owner, string name, bool indexed isActive);\n    event OrganisationStateUpdated(uint indexed organisationId, address indexed owner, string name, bool indexed isActive);\n\n    event AdministratorCreated(uint indexed administratorId, uint indexed organisationId, address indexed administratorAddress, bool isActive);\n    event AdministratorUpdated(uint indexed administratorId, uint indexed organisationId, address indexed administratorAddress, bool isActive);\n\n    event PeriodCreated(uint indexed periodId, uint indexed organisationId, string name, bool indexed isActive);\n    event PeriodUpdated(uint indexed periodId, uint indexed organisationId, string name, bool indexed isActive);\n    \n    /*\n    event OrganisationEvent(uint indexed organisationId, address indexed owner, string name, bool indexed isActive);\n    event AdministratorEvent(uint indexed administratorId, uint indexed organisationId, address indexed administratorAddress, bool isActive);\n    event PeriodEvent(uint indexed periodId, uint indexed organisationId, string name, bool indexed isActive);\n    */\n}",
  "sourcePath": "/home/adolfo/Proyectos/proyecto-fin-master/contracts/Organisations.sol",
  "compiler": {
    "name": "solc",
    "version": "0.4.24+commit.e67f0147.Emscripten.clang"
  },
  "schemaVersion": "2.0.1",
  "updatedAt": "2018-11-04T15:44:15.280Z"
}